:20000000183F0020E1650000FDC90110FDC90110FDC90110FDC90110FDC90110FDC9011019
:1C002000FDC90110FDC90110FDC90110FDC90110FDC90110FDC901103BCA0110A4
:20003C002DE9F04F0120ADF15C0DADF81A000827ADF8187006A806F049FE00263546DF4C55
:20005C008DF854509DF81C006070A6700898E0614FF6FF70A082384607F08CFB5FEA0008C0
:20007C000CD00121122207F035FF07F093FB15A90123D64A0091414606F0F4FC9DF8540099
:20009C00DFF86C83324601232070414604F1A80006F02EFA04F1CC0032460223414606F035
:2000BC0027FA04F1F00032460423414606F020FA042031461022E07004F1480005F086FB18
:2000DC0004F158003146102205F080FB2562267266720720E67204F148021021A072022084
:2000FC0006F0DEFE04F158020320102106F0D8FE042004F12002014606F0D2FE19E0A0784A
:20011C00B4F84050B4F84230B4F84420B4F8461006280ED1ADF84250ADF84430ADF84620EF
:20013C00CC48ADF8481007F0D7FF012010A905F00BFB0A20ADF80A00ADF808704FF0FF3587
:20015C00039502A806F0C2FD002840F0E38130460C90ADF824700925ADF8265009A806F095
:20017C00B5FDDDF82C900028CDF8309040F0D281BDF82800102840F0C18160789DF82A10C2
:20019C00884240F0BB814D4628884FF6FF71814200F0AC812B78A23B00F091812E3B40F01A
:2001BC00AD81A878B046002800F05E81801E00F03681401E012840F20B81801E00F0B98097
:2001DC00401E7FD0401E60D0083800F06981801E40F06B8194F83E30A888052BADF83400C1
:2001FC004BD001208DF83E009A4807F075FF94F83E00012820D004281ED003280DD0022868
:20021C000BD00C98C188ADF836100189ADF838104189ADF83A1080892BE0B4F84000B4F833
:20023C004250ADF83600B4F84430ADF83850B4F84600ADF83A301CE0B4F84000E9888842C4
:20025C00D8BF081CADF836002989B4F842008842D8BF081CADF838006989B4F8440088423E
:20027C00D8BF081CADF83A00B4F84610A889814200DC0146ADF83C1001E08DF83E60B24ABE
:20029C000DA8122106F0C0FE0FE1B04807F024FF6878002840F00981E888E08228892083BC
:2002BC00688960836B4807F0B1FD002840F0FD80A56A002D00F0F9802B68E08A218B628BE6
:2002DC009847F2E0B5F804A00A2007F053FA5FEA00080AD00121152207F0FCFDA8F808A0D6
:2002FC0007F058FA414607F06DF8BA483146062205F06CFAE68226836683A879607355482F
:20031C0007F0EAFE914807F0E7FE4FF001084FF6FF706379A0824BB9A879082814BF0420E7
:20033C000520A070404607F051FCBEE00320A070BBE06878002843D1A649281D02680A6012
:20035C00808888800623A3706889A082E889E082288A2083688A6083E878207394F83E0068
:20037C00012818BF022808D11F2006F013FA4FF47A714143374806F005FC95F803B0B5F807
:20039C000AA0142007F0F6F95FEA000800F090800121142207F09EFD88F808B02D1DC8F800
:2003BC000C50A8F810A0042088F8120007F0F2F9814A414606F038FB7AE0C04608020020D8
:2003DC00687831286AD12671042022E0E37E00006878002862D1A878618AA278032813D001
:2003FC002079657931B9012814BF6671267107E0E97B0000054303D0724806F0C3FBA27828
:20041C00072AE1D1062004E0062A06D0207910B90320A0704CE00220FBE70720F9E7687821
:20043C0000283BD1EB78A078E179ABB9022818D0072816D0062802D16179012911D10328FA
:20045C000FD0604807F0E2FC58B9012007F0BEFB07E0C046D40200205F4A404605F0CAFE73
:20047C0068706878D0B920E06878B8B9564A0220102106F02FFD554A0320102106F02AFDA9
:20049C005648ED1C29680160AB888380544A01252846A179A57005F0ADFE48B1A77007E079
:2004BC00A888464A102106F096FDB8F1010F25D1606A18B3016809B3A07888471EE0687977
:2004DC0013281BD12889012808D1A07B022805D11E4807F001FE05F0E7FF0FE0052006F0CA
:2004FC0059F90146194806F04DFB07E06888C00B04D3374A0420014606F0ECFC0C9848B1C8
:20051C00ADF810700320ADF81200CDF8149004A806F0DCFB208A65792179420831D320F05E
:20053C00010055EA010320822BD08DB92D49207A8DF84A00657A8DF84B500A6813AB1A60F0
:20055C008988998007E0C0464F800000F802002003208DF84A00A07AE57A194A8DF85200DA
:20057C0006218DF853500DF14A0006F04DF8616A30B1A77021B1086810B109683846884709
:20059C00208A810807D3184920F002002082304605F0DAF8208AC108FFF4CBAD20F00400EE
:2005BC00A57B2082681E3FF4AAAD401E7FF4C1AD05F07AFFBDE5C046D57E000073800000B2
:2005DC0067800000B0020020500200206002002028020020400200208F020020340200209F
:2005FC00700200203A020020460200202DE9F04F08274FF0010BADF16C0DADF8207008A8BE
:20061C00ADF822B006F062FBD44C9DF8240020700A98606104F12C0007F039FCD04D4FF47B
:20063C00FA620223A061294604F1600005F060FF43F698223B4604F18400294605F058FF5C
:20065C00D946C820ADF84E0004268DF860900025ADF84C5059468DF8616018AAADF8529051
:20067C004FF4C860ADF850004FF47A70ADF8540040F2053003F0A2FA40F20630022113AA9A
:20069C0003F09CFA4FF44270132104F1380203F095FA40F20730092104F1200203F08EFAB6
:2006BC004FF4447059460DF1610203F087FA40F2113002210DF14E0203F080FA40F21230EE
:2006DC00022114AA03F07AFA40F2133002210DF1520203F073FA4FF44570022115AA03F09F
:2006FC006DFAC849032006F081F912958DF862908DF86350A8468DF865904FF4816031467A
:20071C0012AA8DF8648006F0ADFA4FF4806059460DF1620206F0A6FA40F2024059460DF130
:20073C00630206F09FFA40F20340594619AA06F099FA40F2064059460DF1650206F092FA4B
:20075C0007F06EFC07F069FC07F0C0FAAE4DADF82C702878ADF82E6080000C900BA806F03B
:20077C00B5FA00280CBF0D984046A8498A46886038B106F0DFFFA64A0AF10C00394606F0BE
:20079C0027F805F0AFFD28788000814607F012F8A04DE86020B3484607F00CF805F10C06FC
:2007BC0031682861C8B1484607F004F8686120B9306807F09FF9286910E0E86806F0BAFFB8
:2007DC00286906F0B7FF686906F0B4FF924A05F11800132105F0FCFF02E0084607F08AF98E
:2007FC00904E022006218AF8000070783170062801DA05F00FF91420ADF856009DF856107B
:20081C005029D8BFA8808548CAF80400844807F06FFBCC48A86004F11C0005F041FCCA4E4D
:20083C0006F1080006F0F6FE4546B1460A20ADF80200ADF800704FF0FF360196684606F09C
:20085C0045FA002840F0FF8028461190ADF838700926ADF83A600EA806F038FA109E0028E8
:20087C00119640F0F080BDF83C0010280DD120789DF83E10884208D131460878B02804D14C
:20089C0001F10800097907F005F91198002800F0DA80ADF808700320ADF80A00039602A87E
:2008BC0006F014FACFE0A06907F0D9F85FEA000800F0C980064661783088401E00F09580CE
:2008DC00C01E00F087800C3863D0103840F0B180B6788E4200F0AD80062E53D0062941D055
:2008FC00022902D1E078042E1DD0012E4FD14FF4417016A903F030FF9DF85C308DF85C50F1
:20091C009DF85B208DF85B508DF85E309DF85D008DF85F008D498DF85D2016AB1A680A600D
:20093C005868486033E0012815D0384605F032FF20282CD138464FF4C86106F0ADF909207A
:20095C004FF4C86106F0A8F92946284606F0A4F906F028FB1BE0E57019E0C046EC0500208F
:20097C00FD7C00007A4807F0B7FB052EE2D13846202106F091F90920202106F08DF947F233
:20099C003051E2E7754940F20E3003F0E5FE66704FE0B278900806D32079401CC0B20728B7
:2009BC0014BF20712571100943D3062941D03846202106F071F90920202106F06DF928465F
:2009DC0047F2305106F068F906F0ECFA08B984F803B02EE0B078012803D0022829D15D4823
:2009FC000DE0062925D15B4821E0B07801281BD0022803D0032808BF65811AE0544807F087
:200A1C006BFB16E049800000080200202C0E0020A48500003C0B00208085000021800000DB
:200A3C0019800000B80E0020062902D1484807F051FBADF810700520ADF81200CDF81480EC
:200A5C0004A806F043F9A06900F08AF800283FF42AAFE088810865D320F002006178E08079
:200A7C0006295FD120891B2109222B4606F072FE0028079052D0217919F8011000F8011B63
:200A9C00A27800F8012B227919F80220520828BF00F8015B0A0906D3A27A00F8012B628982
:200ABC00121200F8012B49090DD3217B00F8011BA189091200F8011BA17B00F8011BE189FD
:200ADC00091200F8011B0799401AC0B2ADF81A00DAF808102089064607F060F9400808D34E
:200AFC001D48008806A9ADF81800304606F090FF18B106A81B2106F0CDFF6089A6780A30D0
:200B1C006081701CC0B2502808BF49204FF47041A07091FBF0F080B2E081A0810C4807F0C3
:200B3C00D9FAE0880109FFF481AE20F008006678E080062E7FF47AAE06F0FAFE054807F0DB
:200B5C00C9FA73E61180000060850000770900204C06002070060020620E0020F405002096
:200B7C00DFF800F00FC10110BA482DE9F84F0025B94CB749056094F8E200002800F0638159
:200B9C00012800F02F81B54E02283CD0032840F05A8151F8250CD4F8B8100029A0F5C06015
:200BBC00C4F8D400B8BF49420028B8BF4042814226DA4FF08057D7F8A4014568B4F8BC0004
:200BDC0030214FF47F42082300903046A847D7F8A4014568B4F8C00004214FF4F802122360
:200BFC0000903046A847D7F8A401B4F8D070456820214FF440620A2330460097A847012562
:200C1C0084F8D8501AE151F8258C07F09BF92F4600B901273946924F38680028FCD0B14653
:200C3C00012609F10409D9F82CA03E6009B107F08FF9CAF30720C4F8BC0007F083F9AA4637
:200C5C0000B9B2463B68002BFCD0D9F800B0BAF1000F3E6001D007F07BF9CBF38440C4F8DA
:200C7C00C00007F06FF9AA4600B9B2463B68002BFCD0D9F81C90BAF1000F3E6001D007F061
:200C9C0067F9C9F38120C4F8D000B8F5C061C4F8B81000F09C8094F8D80068B9C4F8D4106C
:200CBC00D4F8C000C4F8C800D4F8BC70C4F8C470D4F8D030C4F8CC30D4F8D410D4F8BC3034
:200CDC00002954BF02206FF0010004F1C802176801EB41014018411000EB917107EBA100A5
:200CFC001060D4F8C810C4F8C43000291CDD1E293CDDD4F8CC0030B93429B4BF15391E21B4
:200D1C00C4F8C81025E02A29BABFD4F8C8000B381E20C4F8C800D4F8C4003F28B4BF401CF3
:200D3C003F20C4F8C4001FE0D4F8CC00032812D011F10B0FC6BFD4F8C8000B30301CC4F89C
:200D5C00C800D4F8C4000028C4BF401E051CC4F8C450032508E011F1150FC6BFD4F8C800D6
:200D7C001530301CC4F8C800C4F8CC504FF08057D7F8A401B4F8C43030214FF47F4245683E
:200D9C00364800930823A847D7F8A40104214FF400321123456831480096A847B4F8C8604B
:200DBC00D7F8A40104214FF4F802122345682B480096A847D7F8A40120214FF440620A23A0
:200DDC00B4F8CC60456825480096A84701E084F8D85040F2FF50404502D8801C40452DD2FB
:200DFC0008202EE051F8251C1E4F4BF2F5204843060A3868C0F3814001280AD106F0A6FB0E
:200E1C0005F05EFD07F0AAF83111C010484306EBE03694F8E50030B91348006820F07F403D
:200E3C008019460801E084F8E5501048310C0660012741600E4D8760287808B90B2000E0AB
:200E5C00052084F8E40003F0F9FABDE8F88FC0462D400C402C500C40840C002000A00C40BC
:200E7C0000800C40B43F0050102009403C600C407E8500002DE9FF47484D95F8E700002856
:200E9C0077D101243D4F85F8E740387B85F8E6007E68C5F8106101A807F0BCF8002605F1FF
:200EBC000C00029601AB8DF8046035490396324605F0D6FA334905F1300001AB324605F0CE
:200EDC00CFFA314905F1540001AB8146324605F0C7FAB96820468847DFF8BC802B4808F1F3
:200EFC0004037A7B00781868C0F3815A22B1BAF1030F04D185F8E140BAF1030F1ED0BAF1FB
:200F1C00020F1BD0BAF1010F2CD14FF08059D9F8A4011F4F456831464FF040521C230320AE
:200F3C0000903846A847D9F8A40131464FF400720923456800943846A84713E0022006F011
:200F5C0089F9BAF1030F0CBF4FF47A7142F2107110480068B1FBF0F1484607F095F848469B
:200F7C0007F094F840460068C00802D2304606F071F900200090BDE8FF87C046708500009C
:200F9C00B74A000061560000555500001020002000A00C4008200020B03F0050840C002060
:200FBC000F4A01461069ADF1080D08B9002010610846801E12D0801E10D0401E07D0012055
:200FDC008DF801009DF801000028FBD106E001208DF800009DF800000028FBD102B0704767
:040FFC00EC050020E0
:201000003C000000000000000000000034100000000000000000000001000000000000004F
:1C10200000000000000000000000000001000000000000000800000000000000AB
:20103C003400000000000000000000006810000000000000000000000100000000000000E7
:14105C00010000000000000000000000080000000000000077
:2010700030000000000000000000000098100000040000000000000001000000FFFFFFFF87
:10109000FF00000001000000080000000000000048
:2010A0002C0000000000000000000000C4100000040000000000000001000000FFFFFFFF2F
:0C10C000FFFFFFFF080000000000000020
:2010CC0038140000E410000095A1011091A70110A1C2011009B2011041B8011000000000EA
:0810EC00000000002F000000CD
:2010F400280000000000000000000000141100000000000000000000FFFFFFFF0000000093
:081114000800000000000000CB
:20111C00341400003011000065C2011069C101101BC2011091BA011000000000000000006D
:04113C002D00000082
:20114000341400005411000071C20110A5B6011099BF011045B601100000000000000000BD
:041160002E0000005D
:201164002400000000000000000000008011000000000000000000000000000008000000AE
:041184000000000067
:20118800240000000000000000000000A41100000000000000000000000000000800000066
:0411A8000000000043
:2011AC00240000000000000000000000C8110000000000000100000000000000080000001D
:0411CC00000000001F
:2011D0000000000044120020040000000000000000000000200000007010000030000000B5
:2011F0001C1100004C1200200400000000000000000000000C0000003013000018000000C9
:2012100040110000541200200400000000000000000000002400000048130000180000004C
:20123000000000005C12002004000000000000000000000010000000A01000002C00000020
:20125000CC100000641200200400000000000000000000002000000064110000240000004F
:20127000FFFFFFFF6C120020040000000000000000000000280000008811000024000000DB
:20129000FFFFFFFF74120020040000000000000000000000580000003C10000034000000C0
:2012B000FFFFFFFF7C120020040000000000000000000000100000006013000018000000D5
:2012D000FFFFFFFF841200200400000000000000000000001C000000AC110000240000004B
:2012F000FFFFFFFF8C12002004000000000000000000000038000000F410000028000000BC
:20131000FFFFFFFF9412002004000000000000000000000054000000001000003C00000057
:1813300018000000000000000000000040130000080000000000000032
:1813480018000000000000000000000058130000080000000000000002
:18136000180000000000000000000000701300000800000000000000D2
:081378000100000014860000D2
:0413800030BF7047C3
:041384000100000064
:0413880000000E0053
:04138C0000000F004E
:041390003200000027
:041394000100000054
:0413980080110020A0
:04139C00000200004B
:0413A0000000000049
:0413A400FDC901106E
:0413A8000000000041
:0413AC00000000003D
:0413B0000800000031
:0413B4000000230012
:0413B80018100020E9
:0413BC00010000002C
:0413C0009811002060
:0413C400080000001D
:0413C8000000000021
:0413CC00000000001D
:0413D0000000000019
:0413D400080000000D
:0413D8000000000011
:0413DC00000000000D
:0413E0000100000008
:0413E400B010002025
:0413E80006000000FB
:0413EC0001000000FC
:0413F000840F002046
:0413F40000000000F5
:0413F80000000000F1
:0413FC0000020000EB
:0414000000000000E8
:0214040070472F
:021406002900BB
:021408000100E1
:02140A002500BB
:02140C002D00B1
:02140E002E00AE
:021410002F00AB
:021412000100D7
:0114140001D6
:0814180003000000BC85000088
:081420000000000000000000C4
:0414280000000100BF
:04142C0000000300B9
:0414300083C4011060
:041434003C14000064
:041438003C14000060
:04143C0000000000AC
:041440009000000018
:041444009000000014
:0414480000000000A0
:04144C0098110020D3
:04145000877D000094
:041454002000000074
:041458004C850000BF
:04145C0010850000F7
:0414600009C30110AB
:041464007F6C000099
:0414680067750000A4
:04146C0095C801100E
:0414700097C8011008
:041474000000000074
:041478000F850000DC
:04147C0048840000A0
:041480006084000084
:0414840030840000B0
:0214880008005A
:02148A00090057
:02148C0001005D
:02148E0000005C
:01149000015A
:041494000000000054
:041498000000000050
:04149C00000000004C
:0414A0000000000048
:0414A400FD800000C7
:0414A800116C0000C3
:0414AC0009770000BC
:0414B000596F000070
:0414B4001F710000A4
:0414B8007167000058
:0414BC00BD59000016
:0414C000FF7E0000AB
:0414C4006160000063
:0414C8000DC801103A
:0414CC001DC8011026
:0414D0000800000010
:0414D40024000000F0
:0414D80018000000F8
:0414DC0028000000E4
:0414E00020000000E8
:0414E4003C000000C8
:0414E8000C000000F4
:0414EC0034000000C8
:2014F00038B5054606F0DEFD2C680CB12168296006F0E0FE204632BD70B505460E462C68EF
:20151000002030601CB906F0CDFD2E600DE006F0C9FD00E0246821680029FBD1B44203D18B
:2015300006F0C8FE002070BD266006F0C3FE012070BD70B504460D4606F0B4FD2A680026E6
:20155000014642B100E01268D068A042106808BF16460028F7D1084606F0ACFE304670BDB1
:2015700000212822DFF88C0B4A43104490F82720130603D5491C0829F3D30020704730B5C9
:20159000014600222823DFF86C0B5343184400F12403DC78250603D5B3F900308B4203D05C
:2015B000521C082AEEDB002030BD38B504281DD1DFF8444B04F1E405284606F0E5FBA8B1BD
:2015D000284606F065FDDFF8341B0A68504364280CD2284606F062FD052005F041FE012063
:2015F000E077042104F1440006F076FD002032BD70B500F030FADFF8085B064695F8340028
:2016100020EA040485F834400024286820B19C3006F0BAFB00B10124686820B19C3006F082
:20163000B3FB04431FD195F83400002808BF002C19D1A86AD0B190F820108A0707D5C4690A
:2016500000F005FBA86A00220221A04708E0446900F0FDFAA86A00224FF400030021A0474E
:201670000020A86270BD304601F00CB970BDF8B500239E460AB94FF0010E002600291CBFBB
:201690000D6A002D6FF05047DFF874CA19D0C469BCB1C968C368994207D0DCF8003099421B
:2016B0000CBFDCF80860DCF80C60A408A4EB9504A61BBE4229DA06F18056B6F1805F24D9EB
:2016D0000123002A1CBFD469002C1BD0016AC9B1D268C0680026904207D0DCF800008242CF
:2016F0000CBFDCF80860DCF80C60C6EB9406A6EB9106BE4209DA06F18056B6F1805F04D90D
:201710004FF0010E03EA0E00F2BD0020F2BD884201D300207047012901D101207047022087
:2017300070472DE9F843DFF8D04907468846A26A00200026012162B1A36ADA68BA4208D1DB
:20175000A26A92F826004146FFF7E1FF002100B1A66A626AAAB1656A81460FE0E868B84288
:201770000BD195F826004146FFF7D1FF002118B1B9F1000F01D12E4681462D68002DEDD14D
:20179000484609B1022029E0002818BF002E24D0A26AD3683146BB4204BFA26A914204D173
:2017B000A16A00F01DF8616A31B1CA68BA4201D100F016F80968F7E7DFF8441901F13202B5
:2017D0008F62CF6200F00100937843F001039370B38C10700B86012000E00020BDE8F28316
:2017F00091F8272042F0080281F8272070472DE9F14F8AB0DFF8C87ADDF85080DFF8F868D1
:2018100000207873894688F800009346B6F93810B6F93A00091AC1F30B0108299A464CDA8B
:20183000348F641CC4F30B042046FFF799FE0546AC8438680A99884205D1387BC10744BFC0
:2018500000F0FE003873DAF8000028629BF80C0000F00F0002280CBFDBF808000020B9F14B
:20187000000FE86125D009F19C0006F08DFA00285AD10A9806F12401FFF75BFE040021D1A2
:20189000706AF8B101F0E1F90890B06A20B1726AB16A00F055F838B9B06A98B9726A69464C
:2018B0002846FFF7E4FE68B1706A286075620120787328460BB0BDE8F08F012088F8000086
:2018D0000020F7E7787B0028F3D114B9746A00E024685CB3226800F032F80028F8D02068D9
:2018F000286025600220E3E7787B0028E1D1746A24B100E0246820680028FBD19BF80C10C8
:2019100001F08F010229D4D12CB1002200F017F80028CED108E0B06A0028CAD0B16A0022A0
:2019300000F00EF80028C4D10220C7E79AF804104846FFF7F6FE0128D6D10420B8E72146FC
:20195000284694E670B5002005F05AFFDFF8A8470FF28141002204F1780006F0A9FB06F054
:20197000CFF9D4E90023801A9941000B40EA0150E060DFF85059E87D30B1217CE068C902FF
:20199000814201D3A87D58B30020A8750121E975DFF8340901680A0622D540F60900288048
:2019B0000021687B696000F05FFC6873287B00F0F000287306F076FBDFF810194A6922F0DA
:2019D00002024A616FF002020A610D600B699E07FCD50A614A6942F002024A6106F06AFCC8
:2019F0000020C4E90000E06004F08EFF687D20B9E16B01F1400006F067FBDFF8981B00200B
:201A1000086070BD10B500F026F8DFF8B8180A7D14430C7506F04EFC832010BD10B500F0E3
:201A30001AF8DFF8A028117D19B906F043FC012010BD117D21EA04041475117D39B906F0C2
:201A500039FC0821DFF8500B06F046FB01E006F031FC832010BD044606F024BB10B504460D
:201A7000207B00F00F00022822D101F0EEF8A168DFF88426081AD16B8008002914BFC9682B
:201A900040F6C41101F57A73834238BFB0F1405F0ED2401ADFF864160B68B0FBF3F1012995
:201AB00098BF012102F1E40006F0F4FA012010BD002010BD38B50446DFF83C56E068E96BCB
:201AD000884218BF4FF4806137D1A068FFF7C6FFA8B1286BE1684A681378022B00D170B9CD
:201AF0000120FFF79BFF83282AD1E86B783006F0D5FA05F1E400BDE8324006F0CDBAD4E994
:201B10000401DFF8C8275369034353610020D3680B43D360D061A0681060D0690028FCD082
:201B300005F12400FFF7DCFCAC62A86AC16848680278022A04D14FF4004105F14400E1E2B8
:201B500031BDDFF8B405C16B8A6801F12803506830B1984218BF0246F9D101E000207047A8
:201B7000507B10F00F0F02BF488D40F609018842F4D10120704738B5DFF8801BDFF8800B6E
:201B90000C68DFF874550440E0430860A00606D54868810603D54FF4005100F0FFFC14F43B
:201BB000602F0DD0DFF85C0B816904F460240C43846105F19400BDE83440002106F08CBAD1
:201BD00031BD70B506F06EFADFF8384B0646A06910F4602F2FD0A569ED012D0EE80748BF16
:201BF000002506D4A80748BF012502D4680748BF0225681D002140B200F020FEA1690122B4
:201C100005F1110082409143A16100F020F804EB8506F06838B154F82500691DF5680022DC
:201C30004FF00063A847DFF8E01A086828B90220FFF7F4FE01E000F00AF8A06930B1BDE875
:201C500070400021DFF89C0C06F046BA70BD304606F030BB70B5DFF8A05405F099FFAC6A17
:201C7000002C02465DD012F00A0F4BD00020A862D4E90401A36940F00A0632401A43A26173
:201C9000DFF8846AB2688243B2603268D4E904018A433260214600F0B9FE00F0BBFE286B79
:201CB00000283ED0E16848680278022A39D194F82700C10705D5286B90F8271041F001015B
:201CD00008E094F827008107286B0BD590F8271041F0020180F8271005F13400296BFFF708
:201CF0000BFC0CE0A8622A6BB368D2E904010343B3602A6B3368D2E904010B43336000221B
:201D10002A630EE0D4E9040102420AD0EC62D4E90401A36902401A43A2614FF4804100F0A6
:201D30003DFCA86A20B9686A10B1BDE87040C1E670BDDFF8C403B0F93810B0F93A0081427E
:201D500004BF0120FFF76ABE7047072050E4F8B507461446BE6E1D4606B1B047A0070ED445
:201D7000D7E91801204029400022914208BF904205D17A681078022809D1210707D5C7E92B
:201D90001C4507F14000BDE8F24006F09DB9F1BD704780B506F09EF9DFF85C230146D06B78
:201DB000126CBDE80840104780B5DFF84C030FF22152016C914207D10120FFF723FEBDE88D
:201DD0000240192006F072B9BDE804400421443006F082B970B584B005F0DAFEC64E0FF269
:201DF000F1410546306C88422AD10022DFF8F81ADFF8104906F1780006F05AF9012030763B
:201E1000FFF700FE0020B0764FF6FF71A08B884208D10221ADF80010684605F0B1FBBDF819
:201E30000800A083B06A40B9746A34B1FFF789FE30B92046FFF73EFE02E0022101F0DBF8CA
:201E5000DFF8C00B054203D04FF0005101F0D3F87FBD80B505F09CFE800707D5BDE804401E
:201E70004FF48051DFF8300706F036B901BD10B5A14C0146E06B4268506838B1012908BF0D
:201E900005F0D2FAE06B416848688047E06B42689068002804BFD168002914D0DFF8681B8E
:201EB00008680028FAD000230B60906800B18047E06B4068C06800B18047BDE81040DFF853
:201ED0005C0C05F05DBB10BD70B5040077D0A168202000291CBFC2B2002A00F088800A88CB
:201EF00040F603039A421FBF40F604039A424968401EEED176E094F82710002301F00701C0
:201F1000012907D0022909D0042904BF00224FF0805306E000224FF0005302E000224FF0AB
:201F3000804394F827100D0706D594F8271011F0070F18BF43F08073B4F924106568A847A8
:201F500006F0B0F86C4E0546708F401CC0F30B0070870020716B81F8270006F13400FFF701
:201F7000BFFA01F039F901F0FDF83AD1E26892F8C200052100B107210846FFF739FB6048CF
:201F9000E3680268934208BF426893F8C200002100B91968002583F8C2504AB192F8C20095
:201FB00010B182F8C25003E01068884228BF014619B9BDE87040012030E511F1010F10D022
:201FD0004E480268E068B1FBF2F1022938BF0121783006F05FF8E068BDE87040783006F0A6
:201FF0005BB870BDE0681822283003F037F9A2690020A06160680028A2D0E06841680B7892
:20201000022B18BF42F0020275E738B50D46A807394C16D5606BFFF757FF606B25F00205BD
:2020300010B145F0020109E0680702D4606A00285ED004F1E40006F031F8042104F14400F3
:2020500060E0680754D5012084F82000042005F007F905F055FEC4E90001606A78B1C568AC
:20207000E06B002818BFA84208D095F82000410704D5EB690022042128469847E563E06BFB
:202090004168DFF8BC0B0A780260022005F0E8F8112002F091FF0120E16BA076087C00282C
:2020B0001EBF8849C87D002804BF0E2002F084FFE06B864A40688168002904BFC0680028A7
:2020D00004D00021D161DFF8CC0B106040F2FF70DFF8C014086000219161DFF8EC0C506164
:2020F0000FF2290020641920BDE8324005F0DCBF31BD0000401B0020801C002008200020D5
:20211000741F0020BDE8344005F0E6BF2DE9F0430546880085B040F193800020FFF7A7FEF9
:202130006A4EDFF8740BDFF8749B664F0021F161306040F60A08012005F062FB0FF2911086
:20215000C9F84000A7F80080002078800021387B00F0F00038737960787B00F085F87873B4
:20217000AA6814466180F97D09B1687CA0B1108840F60201884218BFB0F5C15F05D1218AE5
:202190004FF60F400140218204E0218B4FF60F4001402183002068746946104602F070FD4E
:2021B000684605F029FE40F6040140F60302606800281CBF0388434518BF934243D08B4265
:2021D00018BF0446F3D13EE0288DA8B100216985E96205F134004278017802F0F00201F052
:2021F000F00142F001020170427005F128007860787B00F0F00078734FF6FF30A9680A8AB9
:2022100002400A82F0690028FCD00021F16199F81F0030B104F096FB0028FBD004F0B0FB78
:202230000CE0012005F0EAF8012807D0607B00F01BF860730FF23D00C9F84000A86830601A
:2022500005B0BDE8F0836760607B00F0F0006073D9F8240080680088904218BF8842B3D1F0
:202270000020C9E90000C7E700F0F00040F0010070470000DFF8542B114200D170470120B4
:2022900010B505F0BBF80128DFF8104A06D10FF241010C4821640D49086010BDDFF8302BB7
:2022B00010683221B1FBF0F1012998BF0121E434204605F0EFFE2046BDE8104005F0ECBEB9
:2022D0009C1F0020CC1F002000000440001004402DE9F84F06460C466004DFF8C0591CD530
:2022F00005F0E0FEEF6ABE69B10711D487B10021B96105F0DFFF7868002818BF002E09D0B2
:20231000B7F92410F86832467E680023B04701E005F0D0FF24F4804431E1A0006FF4807962
:2023300040F602074BD595F8200028B1042004F0A3FD002085F8200005F0B4FE8046B068AE
:202350000188B94218BFB1F5C15F00F033F9D5E900AB0020834508BF824518D0042005F050
:202370004DF8A0B1D5E9007105F0CAFC874228BF401EC71B708A10EB1737F76040F2D170D0
:20239000A7F5FA77874224BF40F6C410F06001F017F9FFF7D6FB40B100F004F9686A10B1E1
:2023B00000F018FD01E044F002043046766900224FF080630021B04724F00054DFE0A0076E
:2023D0000AD5686BFFF780FD686B002824F0020401D044F00204D2E060051CD505F062FE4B
:2023F0006E6A074696B1E86B10B1783005F056FEF068E86300F026FC05F082FCA8604FF4E9
:2024100000610FF2CD10286400F0C8F80020687724F48064B3E0687F24F00808B8B1210707
:2024300012D4A86AA0044DD5AE6A002E1CBF7068002806D0B6F92410F06876680022202359
:20245000B04724F400549AE00020687738E0A86A10B12107E6D533E02007E3D50020287612
:202470000120E876DFF87C0B2864FFF76BFA022004F002FD112002F041FDE96B087C10B971
:202490000E2002F03BFDE87F20B10021E977052004F0F2FC0020E8762877687E30B100210F
:2024B000697605F14400042105F016FEB5F93A10B5F938200220914208BF0720FFF798F85E
:2024D00044465CE0E00436D5FFF73BFB08B100F069F80022DFF8101405F1780005F0E8FD9C
:2024F0000020A87701202876B0680188B94218BFB1F5C15F00F05EF80020707405F000FC5A
:20251000DFF81C2613680746E86B04219842A86808BF002140B1B84232BF3F1A401EC71B0B
:2025300002F108003F0B47500020A86024F4805400F050FC23E0200421D5686AE8B150F88F
:202550000C1F4A681378022B17D1C07EC10614D4A86A90F82700C1060FD5A86A81684888CA
:202570000028FAD0A96A886841880129F5D0A86A28630020A86200F02DFC24F4004434B17D
:20259000214605F14400BDE8F44F05F0A5BDBDE8F18F000000000460C41C002005F1440088
:2025B00005F09ABD4946D6F8189000224FF000733046484705D1028A2D2161F3091202823E
:2025D0007047028B2D2161F30912028370470000F0B50446080585B07DD5DFF8C06600200E
:2025F00030760120B077F06B90F820104A0703D5C3690022042198470022DFF8F41BDFF870
:20261000F45B06F1780005F053FDDFF8040C3064F06B40688168002904BFC068002804D030
:202630000021E961DFF86C0628600120FFF71FFC0020E86140F60202DFF85C062860002098
:20265000A16848800888904218BFB0F5C15F05D10A8A4FF60F4002400A8204E00A8B4FF611
:202670000F4002400A830120607440F6040240F6030340F60A0C486878B3078867451CBF82
:202690009F42974229D00146F5E7208DA8B100226285E26204F134004378027803F0F003BD
:2026B00002F0F00243F001030270437004F128004860487B00F0F00048736946A06802F0FE
:2026D000DFFA684605F098FBE8690028FCD00021E961A068286005B0F0BD00204860487BAE
:2026F000FFF7C2FD4873706A80680088984218BF9042CAD10020B060DFE7000008100440A0
:2027100020000E00AC1F00200C10044030B585B0FEF7B6FBDFF8380BDFF8385B0168DFF8AC
:202730007C4541F002010160684605F06DFBA878DFF8241B02906A4604F1440004F03EF94C
:20275000684605F039FB2978DFF8F82B019100208DF808006B46192104F1780003F0E0FF8E
:20277000684605F051FBE878DFF8DC1B02906A4604F1940004F022F9684605F01DFB012076
:202790008DF808006B466878DFF8C02B01901A2104F1C80003F0C4FF00230022DFF8B01B23
:2027B00004F1E40003F062FEDFF83808DFF8A42B20640023042104F5847004F0F5FEDFF8A9
:2027D000140C4FF6FF71818300220021C177DFF8080CC175C4E900216183A183A177052160
:2027F000217402754FF4FA71CD488160C160E27784F8202005B030BD10B5818B4FF6FF72BA
:20281000914209D00024012202FA04F3194206D1641C64B20F2CF7DB6FF0010010BD9943E4
:20283000818304F10C00DFF8481C0B6882401A430A600220FFF7E6F8204610BD70B50646B2
:202850000C4605F02FFCDFF88C1B0546C87F420702D58A7F964214D001228B8B02FA06F0D6
:202870000343DFF80C0C8B830C36016802FA06F621EA06060660006818B914B10220FFF7CF
:20289000CDF82846BDE8704005F014BD70B5012A05460C46DFF8046414D18CB1E068A8425A
:2028B00012D12068706206F1340094F8271041F0040184F827102146FEF71EFE746AECE7CB
:2028D00070BD2468002CFBD020680028F9D02168C868A842F5D100F0A5F806F13400FEF7A9
:2028F0000BFEF1E7141D0020651C00002DE9F84FDFF8A8536C6A80460E460327934605F0FE
:20291000D1FB16F1010F0BF00109824608D1A86A00B3A96AC86840451CD1A86AB0F9246065
:202930003046FEF72CFE00285CD0A96A88420BF002062AD190F82710012202FA09F2114396
:2029500080F82710B9F1000F14BFDFF8B80BDFF8680C0EE005F0A6FB6E6A00E03668002E3F
:2029700045D0F1684145F9D105F0A4FCB6F92460D6E704F005FE26B1696A01224046FFF7C4
:2029900085FF00F04CF883272EE0844205F1E40213D1104605F082FB686A006868622146FE
:2029B00094F8270040F0040084F8270000F02EF8A6B1696A01220EE02468DCB121688142C7
:2029D000FAD1104605F06AFB00F02CF800F01EF826B1002221464046FFF758FF00F01FF818
:2029F000832709E000F01BF83846BDE8F28F05F061FCF7E700F013F8A87E0028F4D100F05F
:202A100009F8F1E7020000401C10044005F13400FEF772BD022105F1440005F05DBB5046CD
:202A300005F048BC21680868206091F8270040F0040081F827007047F0B500298BB0064684
:202A500015461C4667D0DFF8740B00680A78D040C00760D5002D71605DD00021284602F07A
:202A70007BF9B56005F01EFBDFF86C790546787D02284EDA08B9FFF749FE787D284941F8C4
:202A90002060401C787500F0A7FB34B903A80FF2F8611C2202F0E2FB03AC2068DFF8E81BBB
:202AB00030600A466068F0600B46207C3074A069306201207074608A7082E06800B10246C0
:202AD000B261606900B10146F161A06800B103467361A02106F1280002F07AFE002106F188
:202AF000400004F0B7FC684605F09AFA02966B460022DFF8981B06F1780003F0B7FC6B46ED
:202B10000022DFF88C1B06F19C0003F0AFFC304602E000F061FB00200BB0F0BD010007069A
:202B3000741F0020F8B5DFF8B0580446687D002800F08480594E00F00FFB15D006F1240159
:202B50002046FEF7F6FC30B9B06A68B1B16AC868A04209D1B06A38B1B0F9241002224FF0B2
:202B7000E043204600F055FA05F09CFA0746DFF8240B01688C4207BF00210160002141605E
:202B9000687D401E687504F19C05C0B2002842D1307EF46380B10120FEF740FF0220FEF720
:202BB0003DFF00F04FF84FF0FF3104F1400005F0D9F805F077FA074606F1440005F086FAC5
:202BD00006F1780005F06CFA06F1940005F07EFA06F1C80005F064FA06F1E40005F056FAF1
:202BF0000020F06300F02EF804F1400005F06AFA04F1780005F04AFA284605F047FA06F569
:202C1000847004F02DFE207C012817D1BDE8F2400E2002F073B9F06BA04208BFF16300F079
:202C300011F804F1400005F04DFA04F1780005F02DFA2846BDE8F24005F028BAF1BD0000B7
:202C5000D0210840384605F035BB70B505F02AFA124A117E31B1DFF8402A146805F02AFBE6
:202C7000204670BD05F026FB05F04AF810F50030DFF8282ADFF8606741F10001A2FB004553
:202C900002FB015531690020221845EB0103184670BD00005100070601010E04801C0020F0
:202CB0002DE9F84F04460F4616469B46DFF8F05905F0F8F9B5F938108146B5F93A00091AFD
:202CD000C1F30B0108296FF0010840DA288F401CC0F30B002887B5F93800ADF80000FEF771
:202CF0003FFC824604F1780005F0D8F9CAF8087020210AF126073E70CAF804B0BDF8000012
:202D1000AAF82400CAF80C40DDE90A62DFF8940930401140CAE9040104F1C00600207870ED
:202D300040F6FF74686A0028514605F1240006D0FEF7E2FB30B100F050F8484637E0FEF7D4
:202D5000DBFB40B9288F2418C4F30B042C8700F045FB404636E000F040F8297F00291CBF88
:202D7000287E002803D0012100206977287700F035FBA96A21BB287E28B10120FEF742FEFD
:202D900000F028F81CE0A87ED0B905F08BF90446E87E10B10121697608E0DAF80800FEF7C6
:202DB0005DFE38B105F1E40005F076F9204605F081FA05E0204605F07DFA0421FFF7EEFBF0
:202DD000BDF90000BDE8F28F0A0000400400002008200020192005F069B9BDF8000030809C
:202DF0000021787840F080007870B17070472DE9F04FDFF8A05885B081460F4614469A4693
:202E100005F050F929688046894508BF696801A8039400903A46039B4846FEF7E8FC04004E
:202E300005F1320002900ED18178C5F8289041F00401817000F0C4FB9DF80400022862D1AF
:202E50006FF00200CBE009F1780005F027F9DFF85068A08C3087B4F92400ADF80000A760E0
:202E700004F1260703980179DFF838083970C4F804A0C4F80C90DDE90EAB20210AEA0000DF
:202E90000BEA0101C4E9040100207870E06841680A78022A02BF03984179012903D17878CE
:202EB00040F01000787000F08BFB0298C178042905D10278B5F93010E86A00F05BF905F09B
:202ED000F1F880460298C078002818BF042809F1C00529D1706A002840F6FF79214606F16F
:202EF000240006D0FEF708FB30B100F088F840465EE0FEF701FB48B9308F4844C0F30B00C0
:202F1000308700F05DFB6FF0010068E000F077F8317F00291CBF307E002803D001210020FC
:202F30007177307700F04CFB0298C078022803D100F05AF840460CE0012806F1E4090FD14A
:202F5000484605F0ABF800F04FF8B06A0028404604D005F0AFF9B4F9240040E005F0AAF942
:202F7000B06A40BB00213163307E28B10120FEF749FDFFF72FFF30E0B07E00282DD105F017
:202F900091F80546F07E10B10121717606E0A068FEF764FD20B1484605F07EF8284607E0B2
:202FB000B07F0028284603D105F084F9042112E005F080F911E0B06AC16848680278022AE7
:202FD00001BFE06841680A78022A06D10399487918B94FF4004100F00EF8BDF9000005B098
:202FF000BDE8F08F1B200000787840F0800078700021A970704706F1440005F06DB8BDF8DF
:20301000000028800021787840F080007870A97070472DE9F04105460C4616461F4605F0E5
:2030300057F880462046FEF7AAFA040003D094F82700010603D4404605F038F90CE094F8E0
:20305000270010F00F0F0AD0404605F02FF994F8270010F00F0FFAD10220002116E0616800
:20307000DFF84406814202D06168A9666060C5E91867404605F01AF94FF0FF3105F1400092
:2030900004F070FE0020A866D5E91C01BDE8F081DCB500F017F808BFDFF80C362046FFF7D3
:2030B000FFFD002800D514E017E0DCB500F00AF808BFDFF8F4352046FFF799FE002800D5E2
:2030D00007E00AE0DDE906670446CDE900671800704700204FF00041DCBD0146204602B00E
:2030F000BDE8D04002224FF0E04392E770B5054604F0D8FF0446B849DFF8A4650120887588
:2031100005F19C0004F0CAFF307E80B9DFF8841591F8340058B100F025F808D1204605F0F2
:20313000C9F80720FEF764FA04F0BCFF044600F013F80BD105F1780004F0B0FF0120FEF74D
:203150006DFC307E28B10121317702E0012085F8C2002046FFF796BBB6F93800B6F93A10D6
:2031700088427047B6F93A00B6F9381088427047FFF7BCBB42F00202FFF7B8BB0FF2080147
:203190001C2202F06BB80000FFFFFFFFC4090000000000000000000001003A0100000000C7
:2031B0000000000038B5FEF756FCDFF8F4140546087E68B1204604F0E3F9044600F00CF88E
:2031D00004F0FF04012C01D1812032BD022032BD00F002F8012032BD284605F06BB80A4678
:2031F000DFF8BC14CB6B984201D0032070470BE0631E0000001004400A46DFF8A414CB6B88
:20321000984201D00320704700211046CAE70000E122000070B5DFF88814CA6B90426FF0F0
:203230007F0412D1087E80B104F03CFF0546DFF87C0404F0A5F90646FFF7CEFF06F0FF00FA
:20325000012802D13602301670BD204670BD000000200940F6850000A31D00002DE9F04139
:203270000E461446832504F01DFF032E8046DFF8307465D8DFE806F002071114B86A50B11B
:20329000B96A888C05E05348808B4FF6FF71884201D0208055E0802553E0387E207050E0E9
:2032B00024685021204602F093FA0021DFF8E423080152F82130235004F10C0E0C234B433A
:2032D0001344491C1E7E0EF80060261DD3F814C046F800C001291B699C4404F1080343F877
:2032F00000C0E5DDB86AA0B1BA6AD3680801491C235049B2BA6A92F8263004F10C02135420
:20331000BA6AD369221D1350BA6A136A04F108021350786AA8B1042913DC0A01C368A35018
:2033300004F10C0790F82630BB54271DC369BB5004F10807036ABB50491C006849B2E9E7F9
:20335000032534E1E51D0000D31B0000871B0000B91D0000BB15000080B50846FEF70FF968
:2033700000B1806802BD2DE9F8430446CC480D46017E807F01431E4608BF6FF0010026D0A0
:203390000A2129806A60DFF828834046FFF734FA0746002F1AD4AF7004F084FE814628461F
:2033B00004F0EEF8054600F019F805F0FF05012D06D108EB870040F8086C40F8144C05E036
:2033D00001213846FFF73AFA6FF001073846BDE8F2830000AC1F0020CC1F0020484604F09C
:2033F00069BF2DE9F8430446AD480E46017E807F0143904608BF6FF0010037D0AC4F384672
:20341000FFF7FAF90546002D2FD404F04BFE8146280200F4706006434FF6FC703040A549EE
:20343000084304F0ADF800F0FF00012815D1F0040CD5A14901230A6805F10C0083409A43A3
:203450000A60BD77F87F40F00400F87707EB850040F8144C40F8088C05E001212846FFF75E
:20347000EDF96FF00105FFF7B9FF2846BDE8F2830C1004404FF6FC73084618408F4A002107
:2034900010438FE6F8B586480C46017E807F014301D10120F2BD8648C17F4A0707D5837FE6
:2034B0009C4204D101F0FB01C1770021817704F0F9FD054604F00CFE064601212046FFF70E
:2034D000BDF94FF6FC7000EA042040F0816040F0010004F055F807467748012201680C340C
:2034F00002FA04F421EA04040460304604F0DEFEFFF772FE07F0FF07012F01D18120F2BD56
:203510000220F2BD010002042DE9F04107460C46154604F0C7FD624EB17E8046307E014333
:20353000F07E0143062C41D8DFE804F004070D10131F2D002868386036E001207874F86891
:203550006030F86030E0286878822DE0286830742AE0286818B98020FEF754FA24E001281D
:2035700024D18020FEF75AFA1EE0002904BF706A00280DD12968192004F09CFD29681A2071
:2035900004F098FD10E0002904BF706A002801D000250CE0296806F1440004F09FFD2968E5
:2035B00006F1940004F09AFD832500E0032500F007F82846BDE8F08101000104D42108407F
:2035D000404604F077BE2DE9F84F0E46814630684FEA900A3A48824502D2307A022801D087
:2035F00003202AE004F05EFD2A4D804668680027814508BF012787F0010055F8204009F137
:203610009C0004F0C1FB05F1320B58B9BCB104F19C0004F0B9FB28B902212046FEF781F88C
:2036300004000DD19BF80200C5F8289040F002008BF80200FFF7C4FF0020BDE8F28F0224B2
:203650000C204743E81931680161317A01761D480168BAFBF1F1012998BF012109F19C00E8
:2036700004F018FD09F19C0004F016FDFFF7A8FF012C06D19BF80020B5F93010E86AFFF70A
:2036900079FD8320D9E70000A11D0000431D00005B1D0000741F00200430044000093D003A
:2036B000801C0020FDEFFF9F5F1D000001000304AC1F0020010003060810044001000406D4
:2036D00041420F00082000202DE9FE4FE54980460122A1F130000260DF480768002FFCD0D1
:2036F000DE4ADF4EC027E048E04B17603268920808D2324652F8042C03F14104120C42F02B
:20371000F00222704FF0000A8346C1F800A0DFF864C3DBF80810D64D0191880E43D2480E0B
:2037300041D3802018744FF6D802A3F8512018702868C0F30464162CA8BF203C1F460F3F23
:20375000387800F01F001628A8BF2038844223D0624602F1980EDA4ACEF800A0261A022EA9
:2037700005DC16F1020FB8BF6FF0010600E002263018166800F01F06844246F4F856A7F893
:2037900066604FF001061660E8D11068374617601068CEF80060106828460068C0F30420AF
:2037B000162808DB06E0A5F1D0000068C0F30460162800DB203800EB2170401C162805DAA7
:2037D00010F10A0FB8BF6FF0090000E01520DE4F00F01F0040F4F850A3F8590038688008F7
:2037F0003ABFEA48C0F800A041F04061019E6246A5F13804C80E8F0E80F0010000F0010076
:20381000106087F0010000F0010090602068C0F38367C0F38F21B00C23D2304640F30720C6
:2038300000280BD542425046490805D17F0806BF0127391C4FF6FF71521EF5D1002810DD66
:203850004FF6FF72490041F001018A4207D27F0047F001070F2F92BF01210F27111C401E51
:20387000F0D141EA0741182003F0B8FA2068D24E2768C94CA6F10409C0F3870107F0030002
:2038900041EA0021D9F8040040F2FF3253468FB22C21466800972746A7F14000B0470C3DA3
:2038B0002868C0F30D011C2003F098FAB84955F8080C014000F07C400143142003F08EFAA4
:2038D00055F80C1C01F47C000904090C0143102003F084FA624955F8042C0968C2F303504A
:2038F000C2F30345490813D2DBF800100B0510EB237003D41028A8BF0F2000E050460904DC
:2039100015EB217503D4102DA8BF0F2500E0554645EA001502F47F4002F0FF01B8F1220F12
:2039300040EA054041EA000124BF02F0804211430C2003F053FA974DB8F1220F32BF0120B5
:203950002868C0F30070B8F1220F4FEA400040F0200084F8090126BF2868C0F34070012082
:203970008E4EB8F1200F40F0100084F8090138BF514606D33168C80C00F44070C1F38451BC
:203990000143282003F02AFAB8F1200F26BF3068C0F301505046B8F1220F4FEA400040F002
:2039B000600084F80C0126BF2868C0F3C0605046B8F1220F4FEAC00040F0800084F801012F
:2039D00026BF2868C0F345505046B8F1200F4FEA800040F47C40A4F89C0138BF70490AD33D
:2039F000306801038A15920501F47C1100F00F00114341EA0031082003F0F0F94FF48000ED
:203A1000A5F1D0012060674A886D40F21E236FF31F40834216D90868030E13F00F0F03F08C
:203A30000F01C0F3034018BF491E072805D006280EBF0720801C00F00F0041EA0011A2F1A2
:203A500008000170DDF804C0CCF381477F1E13D07F1E3BD036E0C0469402224300600C40D2
:203A7000B03F005040100940AC3F005015620840881300500000204328460068810C21D2C0
:203A90004FF480412160D2F80210430AC0F3033703F0800321F08F010B4347EA0301C2F827
:203AB0000210D2F80130060A66F30303C2F80130116800F0E70721F0E70147EA010004E029
:203AD0002C2009404FF00040224610603B480068C0F3C0070FB94020A0624FF40070206424
:203AF00028684027C0F3C14040F0300084F8C800CCF3815050B3401E03D0401E1FD0022133
:203B10001EE0012003F07AFC06460420314602F089F9042003F072FC8642FAD122480668C2
:203B300026F07F4003F06CFBD9F81400036807214FF06022300E98474FF480602060032129
:203B5000042002F06FF908E0000009400420012102F068F9154803F053FB203D2868144925
:203B700047F6180600F03F0084F8CB0F144B0E80D9F800201868D1680220884711480D4D1A
:203B9000076001212960BDE8FE8FC04694042A43FCFCFC008C13005040A00C4098130050BC
:203BB00000803F400A600840A83F0050BD37860070B00C4094046042A4010010B03F0050F9
:203BD0002C20094000600C40F8B5A0F2013517460E46022D40F214818A4A8B498B4B2D1FAE
:203BF0000F2D04D9143D4AD0AD1E1CD011E0DFE815F0C300BC00F400E400B300AB00070100
:203C1000A2009A00100010009200880079006F006300282880F2F480022E40F0F18039880B
:203C300003F040F8F8BD012E40F0EA8015462879012800F0E58051793878507181B90028B4
:203C500000F0DE809078012800F0A980042800F0A680062800F0A380052800F0A080F8BD47
:203C70003878002840F0CC809078032800F0A280072800F09F80052800F09C80F8BD012E40
:203C900040F0BE803878012840F0BA80154605F1F00004F0C1F8002840F0B2802C46002059
:203CB00004F13E0101F056FD002840F0A98004F1CC0004F017FAF8BD022E40F0A18038883F
:203CD0000A28C0F29D80B0F5486F00F3998015E0022E40F095803888B0F5FA7F80F29080A1
:203CF0000880F8BD022E40F08B8038880628C0F28780B0F5486F00F383801946891C0D46BC
:203D100038E0022E7CD13888062879DBB0F5486F76DC1946F3E7012E72D1387806286FDA3C
:203D3000891F0D460EE0012E6AD13878042867DA15460B3506E0012E62D1387808285FDA07
:203D500015460A352870F8BD012E59D13878042856DA1546093506E0012E51D1387804285B
:203D70004EDC154608352946DBE7022E48D13888154612352946B3E7012E41D1154668790F
:203D900001283DD011793878107161B9002837D09078012803D0042818BF052830D1012083
:203DB00003F01AFFF8BD387850BB9078022818BF052825D103F0F0FFF8BD154605F18704D8
:203DD00000211F22204601F007FD39463246204601F044FA0020EE710EE0154605F1680460
:203DF00000211F22204601F0F7FC39463246204601F034FA0120AE713146224602F000FA80
:203E1000F8BDC046080200204C020020480200202DE9F047DFF80CA20746AAF13500DFF80F
:203E3000F8810068800880F0E78003F095FB814908310B6800261C17641C990D0AD2C0F12D
:203E50003E0110F10A0F4FEAE101D8BF08218C42B8BF0C1CDFF8C4C1990E0FD2590E0DD386
:203E70006246143A1168C1F304211629A8BF20391268C2F30462162A0EDB0CE0634AD2F8CA
:203E90007C11C1F304611629A8BF20391268C2F30442162A00DB203A61189146162905DA15
:203EB00011F10A0FB8BF6FF0090100E01521584C584D01F01F0242F4F85222802A6812F0D0
:203ED000030F18BF0126D20828BF46F002060FB146F00406424692F90740041B052C04DA3B
:203EF0009479B44208BF918866D00F28A0F10F0827DB08EB0014A4F1F0084FEA282EBEF1E6
:203F1000070F88BF4FF0070E7546062D88BF06255CF82570042404EB850465462C59E41BC8
:203F300004F0FF05F70824BFC4F307273D44B70824BFC4F307473D44770828BF05EB14653A
:203F500001E00025AE465CF82EC0F7080CF0FF0424BFCCF307273C44B70824BFCCF3074718
:203F70003C44770828BF04EB1C64ADB2A9EB0101A8EB0E277D43002905F1800504EB152493
:203F9000D8BF012103F0FF0334254D43A9B259434FF6FF73B1FBF4F18B4238BF191C80289A
:203FB00089B2918005DA10F1800FB8BF6FF07F0000E07F20D0719671194800681F29106099
:203FD0004FF0000008D340F2FF128A4206D24908401C8A42FBD301E01F219180124F0F39AE
:203FF000090940EAC10047EA0001CAF8FB1F0026CAF8FF6FBDE8F0870C490D4F42460820D3
:204010000F60921D1070BDE8F087C0463C1100506E62084024220840002000209C1300504E
:20403000082009403500094000E7A48030100940FDFDA400AC3F005001282DE9FE4F40F058
:20405000EB80DFF80CB2DBF8DC00012840F0E1800220CBF8DC0003F0E3FB012002F0FCFA4C
:204070005FEA000805D00120CBF8DC0003F0E8FBD4E004F02DF86B490290002008600120B8
:2040900003F0BCF9012818BF002003D1002001F005FE0120644900900020644F0860386827
:2040B000112003F06DFF00280CBF00240124102003F066FF08B144F002040F2003F060FF28
:2040D00008B144F004040B2003F05AFF28B158480068584E016B308888470A2003F050FF7E
:2040F000002600B101264FF0805A0AF5DC75301C04D02868504E016B308888474F4801264A
:2041100006602868816944F0200088474C48066003F030FF00F001010191400814D249482D
:2041300003F0B4FE8146B9F1040FF8D0B9F1010F05D1DAF8D8014268424803219047424989
:20415000086820F0030008600020FFF761FE2B683868986B8047019801280DD0B9F1010F99
:2041700005D1DAF8D80142683648314690473649086840F0030008602B480660286841699B
:20419000204688470B2003F0FBFE20B12868294BC16A188888470A2003F0F2FE20B12868E6
:2041B000254BC16A188888472448032206602449CBF8DC2000230B602868416B20468847C3
:2041D0000128F9D13868042002F046FA044615481E490660386808688009FCD30098012849
:2041F00002D1304601F05AFD03F0B8FE082002F033FA07460298CBF8DC6004F057F801F014
:204210006FFE03F01DFB57EA040018BF4FF0FF3804E06FF0040801E06FF001084046BDE8C1
:20423000FE8FC0460C400940000222432C200940B8010010C6830000C28300002820086043
:2042500080010443004003402422084014100940840C00202DE9F0411C4615468C4208BFBF
:20427000854282BF00230022E5E0002C08BF002D0AD100290EBF00286FF000006FF0000144
:2042900000F0E1F8BDE8F0815FF000085FF0000E002C08BF8D429CBF2C1C0025070C47EAAD
:2042B00001470E0CB44208BFBD429EBF5FEA044444EA15445FEA0545070A47EA01670E0A06
:2042D000B44208BFBD429EBF5FEA042444EA15645FEA0525470847EAC1774E08B44208BF5F
:2042F000BD4200F29380870847EA81778E08B44208BFBD427CD8C70847EA4177CE08B442C8
:2043100008BFBD4266D8070947EA01770E09B44208BFBD4250D8470947EAC1674E09B442DF
:2043300008BFBD423AD8870947EA81678E09B44208BFBD4224D8C70947EA4167CE09B44227
:2043500008BFBD420DD8E60146EA5566EF01B14208BFB84201D3C01BB14158EB08085EEBEF
:204370000E0EA60146EA95664FEA8517B14208BFB84201D3C01BB14158EB08084EEB0E0E6D
:20439000660146EAD5666F01B14208BFB84201D3C01BB14158EB08084EEB0E0E260146EA77
:2043B00015762F01B14208BFB84201D3C01BB14158EB08085EEB0E0EE60046EA5576EF0055
:2043D000B14208BFB84201D3C01BB14158EB08084EEB0E0EA60046EA9576AF00B14208BF86
:2043F000B84201D3C01BB14158EB08084EEB0E0E660046EAD5766F00B14208BFB84201D392
:20441000C01BB14158EB08085EEB0E0EA14208BFA84201D3401BA14158EB08085EEB0E0EAA
:20443000A34208BFAA423EBF2D0A45EA0465240A89D3734642461E4617460B46024631466C
:204450003846BDE8F08170472DE9F843614C5A4D5A4EDFF870815E4F94F8E4100846401E13
:204470000B2864D8DFE800F07B2C43062343062343067664042907D001220A2945F8212C80
:2044900014BF0220032004E0202045F8210C0120024684F8E200002045F8390C0827C5F811
:2044B000FF7FC5F8F37F45F8392CBDE8F883052914BF09200620002784F8E400376075E0BA
:2044D00094F8E170383D0120002FC5F81B0004BF0620002102D00021F160032084F8E40081
:2044F000032045F8010C3160306880085ED294F8E4103348012703290ED0006845680021FB
:204510006022052300914046A84794F8E400062814BF0A200720CFE70068456800216022AB
:204530000523022000904046A8470420C4E7FEE72548264F0026012506600E203D6000F019
:20455000DDFC022002F098FC84F8E45084F8E360BDE8F883002038600C25786024E04FF037
:204570008059D9F8A0010168202088472C3D0F2045F8010C41F61D56C5F80360D9F8A40146
:20459000466800214FF4C0720723022540460095B047D9F8A401C66800214FF4C072072300
:2045B0004046B0470120386084F8E45004F1780003F072FDBDE8F88339400C4038600C406D
:2045D000A401001000A00C402C500C4004800C4034600C40840C00202DE9F04F8146ADF148
:2045F0001C0DFCF74DFC03F0B7F90026012804D103F0B6FA022808BF012651490868C0F307
:204610008150012806D151F80C0C0127010E07FA01F006434B48007803F026F84A4D2C46C1
:20463000286038B1FF2204F1400107467F1E01F8012BFBD1D9F800104FF0000801F0FF02AD
:20465000FE2A1CD0CC4601F0FF0342460127FF2B0ED0984203D907FA03F31E4201D0022079
:204670006AE001F0FF0143EA0808611881F840205CF8041F521C01F0FF03FE2BE7D109207E
:2046900000F09AFCC4F8049004F12400012102F0E1FE23683BB3002794354FF0040BBA4671
:2046B0000120B840064218D118EA000F04BF07F0FF0141F4C04104D0E01990F8400059F8B9
:2046D0002010224800F06EFAF8B24FF0FF3103F051F92368C5F800A001E0C5F800B07F1CB1
:2046F0002D1D9F42DCD304A803F066FB184D194A2878102104AB059004F1080002F010F8FC
:20471000684603F081FB00276A46686803971249029004F1600002F051F9104951F80D0CF2
:20473000012620F4F85040F4005041F80D0C0C4DC1F8FF6F38462E6007B0BDE8F08FC046A3
:20475000B43F0050102000209C1D0020007FC767C8850000A17900009D6500000D30094041
:20477000080009402DE9F04F0C464549CA7AADF12C0D84460592487B09900D7900958A7AAC
:20479000488B4B8A0E7B91F805A091F802800492B1F846E008904A7A088B0392CD780790DA
:2047B0000A7AC88A02920F6A0690CA79888A01928A79E146A9F54079B9F11D0F10D8DFE882
:2047D00009F05B5553514F4D4B494643413F3C3A380F34312E2B2923201E1C0F19181716B5
:2047F000BCF1280F49DA604601F0DAFF21E0099EB246D046CDF814801DE008980790079850
:204810000690DDF818E005E03831086820608888A08032E070460AE0B1F8440009E0B1F886
:20483000420004E0B1F8400001E091F83E00034612E0208021E0059804900498039001E094
:204850003231E2E7039802900298009006E0019A87310DE068310BE01846EAE7009D0BE064
:204870002C31D2E7276008E0583100E048311022204600F0F3FC00E025700BB0BDE8F08FF6
:2048900008020020364AF8B5101D0368B3F1FF3F08BF002303F060F8012860D1314E1068B1
:2048B0003268070F02F0FF02802A28BF002203F053F84FF0FF31012805D1381C4FD0801ED5
:2048D00004BF143251B2142949DB27482749002501270560264E0F60264C3760206800282E
:2048F000FCD1274A161D2449244F306820F0030001433868C0080CD2106810F0030F0AD0BE
:2049100041F003003060106800F003000328FAD101E041F001011B483160006820B11A48BF
:2049300000681846FEF7D0FE184819490560194F0A686FF35B4247EA020008601649086874
:20495000C0F30130012806D10A681448104040F400320A60086020680028FCD1F8BDFEE7F6
:2049700018130050A0100050840460425C600C40082204430C00684204000020B03F0050F0
:204990000040034080012843000120438C210840482003400000390104000940FFFFFCFC17
:2049B0002DE9F0430746ADF11C0D03F07BFC02F00FFC4FF000090646CDF80C9003F0F8FA49
:2049D00030F0010002D00398B04202D16FF0040066E078684C4658B1B0F1FF3F05D004A9EF
:2049F00002F0DEFB30B1804659E04FF0FF3000E02046049003F052FC049D4FF001082D1845
:204A100002E00A463BE004937068049903F042FC00282DD0684601F075FBD8B99DF804009E
:204A300005A902F073F988B9BB68BDF814009DF80610029A984748B1BDF814009DF806505A
:204A5000B881029BBD73C8463B6111E0029903A802F092FC0498641CB0F1FF3FD4D0002818
:204A7000D2D003F01BFC2B1A02D004989842CAD2039F02F0E0FF06F1080547B13A4652F818
:204A90000C1C0029BDD1296842F80C1C2F6003F0EBF824B1706803F0F9FB641EFAD1404668
:204AB00007B0BDE8F08370472DE9F04135483449354C08602046FFF78FFD2046FFF78CFD69
:204AD000324C201D04F1100100F016FC052100232F4A206004F11C0002F066FD304C0025BA
:204AF000032004F1180141F80C5F401E8D60FAD1241F062004F14C010A46401E22F80C5BE1
:204B1000FBD10820234F0880234A8F602349121D22F00303CF1A6762E3612362E66904F1C9
:204B30002008944618460A4601E026F8025BB142FBD8B910E82700EB810121F8045C4FF690
:204B5000FC761F8006EA0C0300F1E807D21A676106EA0201EC39A0F8E810284600F036FD68
:204B7000A061D8F80000606100F092FF01F0B8FD01F052FE03F086FB2846BDE8F081C0462D
:204B9000A4120020BD0F000088840000501000209D760000F177000011200020183F002094
:204BB0009C0D00202DE9F0470D4606465FFA85FA280824BF2E4845402E494FEA8A03C858ED
:204BD00085EA00023240C2F300672B4A06EA0504B043224006F4E0240243B4F5E02F01D136
:204BF000500E14D306F4E020074310D002F4E027B7F5A02707D0B7F5803704BF22F4003287
:204C100042F4A02203E022F4803242F4C022DFF86C80CA5008F1D00739680122002002FA3C
:204C30000AF40C4218BF101C5FEA000906D1F00D04D34146C5F3805001F80A00300E0BD3EA
:204C500003F030FA290E34BF0021211C3A68A2431143396003F02EFBB9F1000F06D0F00D83
:204C700004D34046C5F3805100F80A10BDE8F087006000A000100840007F077F0020024051
:204C900080B50288A2F602073FB143F20502BF1A14BF002290F8242000E0C27B2D482430F8
:204CB000D0F88832521F0B6048D0521E3CD0121F30D0921E24D0D21E18D00F3A0CD0D0F858
:204CD00090224A60D0F894228A60D0F8BC0220F0784040F080503AE042694A60C26A8A602D
:204CF000406C20F0784040F0704030E002694A60826A8A60006C20F0784040F0F04026E0BB
:204D1000C2684A60426A8A60C06B20F0784040F0C0401CE082684A60026A8A60806B20F015
:204D3000784040F0A04012E042684A60C2698A60406B20F0784040F0405008E002684A6011
:204D500082698A60006B20F0784040F02050C86080BDC046A0100050E0B501880025A1F656
:204D7000020159B143F20402891A04D0491E19D190F8246000E00226C76901E0C67B4769FD
:204D900087B13F1F052044F2380357F8041F0A04120C934203D0401EF7D13F1D01E0C1F37A
:204DB00003450DB90120E0BD1F4B3046401F17D01C4A401E0FD0001F0BD0801E07D0C01E01
:204DD0000AD00F381ABF1A1C6032121D04E0121F02E0083A00E00C3A1068C0F3834003E0A2
:204DF0001A461068C0F303200F2806D0A84216D921F4702141EA004110E0761F0AD0761F09
:204E100008D0761F06D00F3E1CBF21F4702141F4802103D121F4002141F4E02139600020A2
:204E3000E0BDC0460411005020130050F8B503F08FF800F099FE03F09DF8044604F00C0057
:204E50000C284BD0E0081ED202F030FB264E376805460120014602F062FD316869438842D8
:204E700011D2224CF020B0FBF7F0291A204603F005FA204603F0FEF90120FFF7DDF82046F2
:204E900002F02EFD2CE0200928D2194802F0FEFF0428FAD0174A610905D220B1116810462E
:204EB00021F0010103E01046016841F001010160983210684FF0805540F003001060D5F8D3
:204ED000B8018169202088470B4CD5F8B8712068B86B804701202060206801E0FCF748FA12
:204EF00003F03CF8F8BDC0460C860000900C0020004003408C2108402C2009402DE9B0435C
:204F1000044603F0CFF881462748021992F8EE10491ECFB2002F82F8EE703FD1254901EB4B
:204F300084014A880C78904634F07F0718D1E1090FD24FF0805000F5DC75D0F8B801816992
:204F5000104688472868416B404688470228F9D11EE000EB8800D0F804110020884717E063
:204F70004FF08055D5F8B801016A10468847D5F8B801816A40468847D5F8B801016B4046B9
:204F900088470A4901200860094908688008FCD304F03F003F2801D0FFF7B0FF484603F0AC
:204FB00089F90020BDE8B083840C0020282008602820084098830000F8B5064603F072F806
:204FD000264D0746A91991F8EE00421C002881F8EE203ED1224C04EB8604267806F03F00F2
:204FF0003F2801D0FFF7E8FF648836F07F0018D1F0090FD24FF0805000F5DC75D0F8B80162
:205010004169204688472868416B204688470128F9D11EE005EB8405D5F8041101208847F4
:2050300017E04FF08055D5F8B801C16920468847D5F8B801416A20468847D5F8B801C16A59
:2050500020468847074901200860074908688008FCD3384603F02EF90020F8BD840C0020FE
:205070009883000028200860282008402DE9F0410E46294990461C4606AF8C46726808789F
:20509000BB8851783F881278002502EB012242F62321521A29D0521E052A18D9921F0CD070
:2050B000263A34D1072F30D8C7F10700984298BF83B2674407F1080121E0B84225DBC01B96
:2050D0009842D8BF83B22380DCF804000BE0F06802F02AFE80B2B84217DBC01B9842D8BFD8
:2050F00083B22380F06839180AE0082F0DD8C7F10800984298BF83B207EB0C010F31238011
:2051100040461A4600F0AAF803E0072501E025800A252846BDE8F081680900202DE9F041E7
:2051300014460F4603F0A2F81FFA80F81F480068007808B902F056FCE7B138684FF0FF359B
:2051500018B140280AD3810B08D17E681EB1310A04D0310E02D1B9680F2908D93DB10CB111
:20517000284620700820FFF7C9FE002418E07968BA6803E04FF480700122014602F058F85B
:205190000B49012008600B4908684008FCD30A4800684168022088470CB10021217004463A
:2051B000404603F087F82046BDE8F08178840000A802504208800240CC010010F0B520487F
:2051D0000127F84201D001F005F9204D204F214EBD4206D203CD0478A4003459401CA047BB
:2051F000F6E71D48002800D08047164D164FBD4202D210CDA047FAE7F0BD03251BE04168E5
:2052100008300A1C2A400BD11A1C2A40AB4305D0046804300C600431043BF9D1131C05D029
:20523000047801300C700131013BF9D1021C2A4001D0A84304300368002BE0D17047C04681
:20525000FFFFFFFF0000000000000000F88A0000588B0000B88A000055C50110002A4AD02C
:205270005FEA000C8B071CD1830722D1102A08D370B4103A78C978C0103AFBD270BC10324C
:2052900038D0042A2CD3082A05D30C2A24BF08C908C008C908C008C908C092072AD0920FA7
:2052B00022E00B780370491C401C521E22D08B07F7D1C30714D18307D8D0121F12D308C9A1
:2052D00003801B0C4380001D121FF8D20AE008C903701B0A43701B0A83701B0AC370001DA6
:2052F000121FF4D2121D05D00B780370491C401C521EF9D1604670472DE9F843234D8846C6
:2053100006464FF0FF3105F12400814602F02AFD00200CE0FF2909D02A688A4204D905EB90
:205330008101D1F894700FB1002627E0401CB8F1000F03D018F82010FE29EBD1002434605F
:2053500074600127B46011E0FF280ED005EB80000B787268C0F8946007FA03F010437060A7
:205370000A680949304601F06DFD641CB8F1000F04D008EB84010878FE28E5D1484602F028
:20539000A3FE3046BDE8F883007FC7679C1D00202DE9F8432020EFF3118780F31188214CBC
:2053B000A068012102F05EFF4FF001094FF0000865692168A4F81C906A1A2168A4F81E80EE
:2053D000461B401A904227D387F3118840464519361A4846294602F041FFB042F7D92021BD
:2053F000EFF3118781F31188E18B012903D14046294602F033FFB0F1FF3F06D0A169801B39
:20541000814238BF081C411901E0A069291802F021FFA4F820902560A4F81C8087F31188EB
:20543000BDE8F88378010020B0B50446A768ADF1280D5FBB0C2000F0C9F8071C1DD068465D
:2054500000212422082302F001FF002306976A466168ADF810301848059302F0F3FE386027
:2054700070B90820ADF824000C25ADF8265009A801F032FC384601F069FF6FF0030018E0B5
:20549000E06878602069B860A7600AE002F0D3FA0546386802F024FA2069B860284602F08F
:2054B000E3FB3868616802F0E9FE386802F0E2FE00200AB0B0BDC046197F000070B51E4DD5
:2054D000AC68064602F040FB4FF47A71001B4843030C02F041F82969401A48BF404240F676
:2054F000B8319B19994210D306280EDAE9688C420BD8286848B1114A091B51438A0C02EB0A
:205510001141884288BF011C08E00D49486840080ED208687D2100F0FF004143C82905D39B
:20553000B1F57A6F88BF4FF47A6103E0C82101E04FF4FA61084670BDE41F002040420F00ED
:20555000AC3F00507CB5042001F058FF022818D0032816D019480068C0F38150032814BFF5
:2055700041F288324FF47A721649174C09684C342046B2FBF1F102F08DFD204602F08CFDFA
:205590007CBD4FF08056D6F8A4010D4D446800214FF040521C23032000902846A047D6F82D
:2055B000A40100214FF4007209230126446800962846A047022001F05FFC7CBDB43F00508C
:2055D00000A00C40082000208C0C0020F8B5001D84B214F0030002D0241A241DA4B202F02F
:2055F0002AFA1A4A102C014657691161C8BF9769388800221646C30BDD0319D126B984425C
:205610000ADD3A46012617E01388C3189BB29C42138011DC174618469FB1001B80B2042850
:20563000B4BF3C88385344F400443C803F1D08E080F40040002680B2C71938880028DAD19D
:205650000027084602F010FB3846F8BD980D00202DE9B84102F026FD1C4C1B4D804604F121
:20567000E000007848B92C46A168022088470746102000F0F1FF17B31EE000F0DDFA78B938
:20569000134800683221B1FBF0F101B9012104F1300002F0FFFC04F1300002F0FDFC0EE06B
:2056B000002084F8E0002C46A168022088470746102000F0D1FF17B1A1680320884740466C
:2056D00002F0F8FDBDE8B88170850000840C0020082000202DE9FC41144608AF4D68DFF818
:2056F00070803E886A782F7807EB022742F60212BF1A16D0A7F237172FBB86B9012B0CD11C
:205710002078012807D1C96847460870396803200027884718E0802716E00D2714E00B2701
:2057300012E0009601252246019500F0E9FA071C0AD16178207810EB01200CBF0220281C1E
:2057500041460968E5E70A273846BDE8FC81C046300E00202DE9FF410E4605461A4C7188EC
:20577000E08A81420CDCB188814209DBF088218B884205D13089618B884208BF18271FD0FC
:20579000052001F00DF877888046F188B388ADF80270A08AADF806100C4AADF800003789AE
:2057B000ADF8043011216846ADF8087001F032FC071C05D1A57304F1F000414601F0E8F995
:2057D00038460090BDE8FF810802002085800000002213460A46194671B510F0030F0BD01A
:2057F000002A82BF00F8011BB2F1010210F0030FF6D1002A08BF71BD11F0FF0141EA01212E
:20581000042A18D341EA0141082A0FD30E46102A08D30C460D46B2F10F0312F00F0272C0D6
:20583000103BFCD812F0080F18BF42C012F0040F18BF40F8041B12F0020F18BF20F8021BE5
:2058500012F0010F18BF017071BDFEE7FEB508AF0D783E88FF24022D26D14F687D783F786A
:2058700007EB052742F602157F1B16D04DF29F603F1A10D16EB9022B09DA1278002532F0AB
:20589000010004BFC868027011D0802515E00D250BE00B2509E00A2507E000960125019579
:2058B00000F02EFA054600E00125FF2C05D00448006810B1006800B180472846FEBDC046EB
:2058D000440B002038B5054601201A4C68712879B0B902F0B0F82178002904BF6FF007041E
:2058F000051C15D0491EC9B2217039B902F0BCF9606801F0FDFC0020687118E0054613E0A5
:2059100002F099F805462078FF2805D16FF00604284602F0A9F90BE0401CC0B20128207037
:2059300002D1606801F0FBFC284602F09DF90024204638BD3412002070B50646B079F46803
:205950000628A4F10C042CDA3079062829DA02F072F8154DB27991000C3501EBC201691899
:205970004968E1B102F080F930792071B0796071307AA071B179880000EBC1002818F16883
:205990004068083001F0F8FCB179880000EBC1002D186868406802F079FC002070BD02F071
:2059B00063F96FF0020070BDD80D00202DE9F8438146EFF31188202080F31188174D154C44
:2059D000134F012605F11C000660A4F114000660F86A016A14208847D9F81000810C14BF96
:2059F000000C04202060386802682321002090470948066054F8180C20F4C02040F48030A3
:205A100044F8180C2E6088F31188BDE8F883C04684010010182009408002244300002443E8
:205A30002DE9FE43184E194D307800244FF6FF78012725E0696931F8240080451DD08146E6
:205A500002F0B2F9400818D348461B213A46002301F086FE019080B1B5F84210ADF80270AC
:205A70006B78ADF8001069460370484601F0D6FF18B168461B2102F013F83078641CE4B29A
:205A9000A042D7DCBDE8FE8308020020B80E0020B0B5ADF1400D02F0D1FB044600213C2254
:205AB0000823684602F0C6FB1148416806918168006804900F480068002205900E48089167
:205AD000694602F0B3FB071C0DD001F0B4FF0546384600F033FC30B1284602F0C5F8204677
:205AF00002F0A0FB01E000F039FB10B0B0BDC046CC8200009C0D0020F97D000098B5164C95
:205B100094F8E100002710B91448007860B102F0C9FA94F8E310002906BF012184F8E31080
:205B3000012702F0C7FB0FB1002098BD022001F097FB0E20FFF740FA094A106848B9094923
:205B50004020C86008600127D761002084F8E20098BD012098BDC046840C00207E850000E3
:205B700004800C402C500C40164880B507683FB315498B6803EA5300C00E21D2134A106862
:205B900080081DD2486880081AD21068096810F0050F4FEA114101F0F00101F5E0710AD1CE
:205BB000B9420DD2190F38BF40F00100D90E38BF40F0040003E0B94202D920F0050010605B
:205BD00080BDC04628500940AC3F005000000940F8B5844640F6FF741CF8013B002210E0AB
:205BF000481B401E10F8015B7F1E01F8015BF9D103E01CF8010B01F8010B521C5B08082AA9
:205C1000EADA5808F5D21CF8010B1CF8015B05F00F07FF1CC5F30315122F45EA001508D1A5
:205C30001CF8016B300A24BF1CF8010B60F3DF16F719AC42D4D1F8BD38B5012001F0DEFB1F
:205C5000012820D0114DD5F82401C4681048342101220023A047002808BF002014D0286842
:205C700001F0B6FC01F070FF0B4A0A4D93681168D060C01AA1EB910105FB00F3180C8842E8
:205C900028BF011C1160012038BDC0468000001000A00C4040420F00E41F0020012898B5BD
:205CB00025D1012001F0AAFB012820D001F064FF124C012104F1D800017002F05BF980092D
:205CD00017D20D4800683222B2FBF0F707B90F46083C04F1300002F0E1F904F13000394638
:205CF00002F0D8F904F1300002F0D6F901E001F08FF8002098BDC046082000208C0C002017
:205D1000F8B506AF3C880E46054644BB022B24D150781478BB8804EB002434EA03001AD1D7
:205D3000F1680968284602F03FF8844211D0F06806683146284601F0A3FD48B94FF6FF705A
:205D5000314601F09DFD002808BF112008D0058084700020F8BD8020F8BD0D20F8BD0B2089
:205D7000F8BDB0B504AF3F88002F18BF0B2028D10878022821D14868457800784FF6A17777
:205D9000002400EB0520C01B07D0401E0BD0401E022884BF201C0A2411D801201880C868CD
:205DB000007810700CE002201880C86800781070C86800880012507002E0002001241880C4
:205DD0002046B0BDD0B5044602F06CFA00F0B6FA071C08BF6FF002041FD001F02CFE014679
:205DF000A2880F480023243030F80C6F5EB902804760A26882602373786820610024084663
:205E100001F032FF09E0964208BF6FF00204F6D05B1C062BE8D300F0A1F92046D0BDC046B7
:205E3000B40D00202DE9FC41144C154F06468846700809D320684568002101220B461FFA09
:205E500088F000903846A847B00809D3206845680021022201231FFA88F000903846A847FD
:205E7000F00809D320681FFA88F600210C220223446800963846A047BDE8FC81A40100102D
:205E900000A00C40B0B5044602F092F830F0010008BF6FF004041ED002F004FA054601F072
:205EB000CAFD01460D480622403030F80C7F6FB1A388BB4208D1406800680022854208BF43
:205ED0000122A260002403E0521EEED14FF0FF34084601F0C9FE2046B0BDC046980D002041
:205EF00098B5154B1B1D18680004070C21D001F033FB104991F90720824205DD10F1800FC6
:205F1000B8BF6FF07F00C8718C88BC4210D80A68D3F8D40F801A801C1F2888BF1F203F1B6C
:205F30004008C7404FF6FF70E719B84238BF071C8F8098BD00200020301009401348144A54
:205F500014490078801E0A2807D8DFE800F019140F06140F06140F0607C0FEE710688008B6
:205F7000FCD250688008FCD2FEF76EBA08688008FCD3FEF769BA08688008FCD2FEF764BA60
:205F900010688008FCD3FEF75FBAC046680D002034600C4038600C403EB5401E4FF0000421
:205FB0000AD0401E04D0401E1CD1FEF74DFA19E0FFF7A4FD044615E0684602F031F8019411
:205FD0000B4D8DF800400849029401226B4605F1780000F04BFA054A2C21234605F19C009F
:205FF00000F09EFB20463EBD4D5F0000850B0000840C0020F8B506AF3F881D461446002FA6
:2060100018BF0B2021D148684278007842F61927002600EB022087420BD042F60812824235
:2060300018BF0A2610D102202880C868008820800AE000F0C9FD05494A788242C4BF021C31
:206050004A700120288022703046F8BDB80E00201549096821280ADC212819D00C380FD0B7
:206070000D380FD0001F0FD0C01E0FD01AE0253810D0001F10D0401E10D0401E10D011E08E
:20609000086870474868704788687047C8687047086970474869704788697047C8697047B4
:2060B000086A704700207047F0010020F8B5144CA17811BB00B160626678E578182001F0F6
:2060D0005FFB071C19D00421002201F037FE304601F0B8FA38727D720020B87204F148069E
:2060F000FE6004F158033B6104F120027A6101F057FB024A394600F09DFCF8BD5580000033
:2061100008020020D0B5044602F0CCF801F060F8061C08BF6FF004001DD001F08CFCB168AC
:20613000002908BF002709D051F80C2C0023B2600F4641F80C3CFF2601F8026C01F094FDC5
:20615000A7603FB117F8080C207117F8070CA0710020D0BD0220D0BD00BF704708B5FFF7CC
:20617000FBFFFEE738B50D4C0546A06820B10C48B0F1FF3F00D080470A48006880476068B3
:2061900010B1014628468847206800B18047064800688047FFF7E2FF38BDC0460812002021
:2061B000FFFFFFFF2C12002030120020DCB5044602F078F801F00CF8064601F0F9FE30F08D
:2061D000010014BF002E6FF0040017D0606858B1B0F1FF3F05D0694600F0E2FF30B1074630
:2061F0000BE04FF0FF3000E0002000907068009902F050F8002700B901273846DCBD704725
:206210002DE9F04106461148401C90F8008014460D46102001F0B4FA071C12D0042107224F
:2062300001F08CFD404601F00DFA38727E72BD72FC6001F0B5FA044A394600F0FBFBBDE839
:20625000F0810420BDE8F0817F80000008020020F8B5044602F026F800F070F8071C19D0EF
:2062700001F0E9FB84460D480021243030F80C6F6EB94FF6F8720280476000258560217167
:206290007868A060604601F0EFFC2846F8BD491C0629EBD3FFF762FFF8BDC046B40D002024
:2062B000BCB514464A685578127806AF02EB052242F60215954215D13A8801250092224643
:2062D0000195FFF71DFD074608480830016857B949B16278207810EB02200CBF0220281C00
:2062F000884700E00A273846BCBDC046B80E00201FB50820ADF800000420ADF802000E4809
:20631000007880000190684600F0E6FC00280CBF02980020064C606138B101F011FA054A70
:2063300020460621183000F059FA00901FBDC046B80E00208C850000080200202DE9F84351
:20635000804601F078FB0F4C03250026814654F80C7F5FB93046C4F800800146A6600A4655
:2063700001F05CFF606018B9FFF7F8FE474501D1264601E06D1EEAD1484601F075FC3046ED
:20639000BDE8F883B40D0020B0B5054601F08AFF044601F00DFE30F0010008BF6FF004042D
:2063B00014D001F048FB0A4A002132F80C7F4FB153681B689C4204BF2971002404D0491CB5
:2063D0000629F2D36FF0040401F04EFC2046B0BDD80D0020F8B506460F4D104F738800246C
:2063F00017E0A00000EBC400321851689068D26852B9AF420BD00A7855F822200346491C7C
:2064100008461946904701E0FEF728FF7388641CA4B2A342E5DCF8BDB88A0000C48A00002F
:20643000BFB50546082014460F46ADF800000420ADF802000C200190684600F04DFC00287A
:206450000CBF02980020014620B9204601F04CFB002008E08C60284601F0DCFE17B1384676
:2064700001F014FF01200090BFBD7047F0B515460E4604461F1CADF1240D08BF002308D0BA
:20649000684600212422082301F0E0FEB8686B460690204631462A4601F0B8FE0348044FE4
:2064B0000168204609B03960F0BDC0460C860000082000200F48B0B58178062918BF072933
:2064D00017D14578848A0E2001F05AF9071C10D004210A2201F032FC284601F0B3F8387260
:2064F0007C811320387301F05BF9034A394600F0A1FAB0BD0802002079800000F0B50D468D
:2065100014461F460646002124220823ADF1240D684601F09BFE00200590ADF8100008480D
:206530004FF47A716B4600680697B1FBF0F080B2294604FB00F2304601F068FE09B0F0BD16
:206550000C8600002DE9F041054698460C46142001F016F906AF061C13D03A78032101F022
:20657000EDFB3581002030744046F46001F06AF8707401F015F9044A314600F05BFABDE8EA
:20659000F0810420BDE8F081957A00002DE9F04101F0A0FD0D4D603D2B688046A3B105F1C2
:2065B00094060024012707FA04F018EA000F07D056F8240020B1026812B1214690472B68C7
:2065D000641CE4B29C42EED3BDE8F081FC1D00200C4885460C4885446F4607208743BD46C2
:2065F0000A486F4607600A48002803D07946491D8E460047FEF7E2FD01F0FAFA01F002FEE6
:20661000FEE7C046183F002000040000AC120020E57F00002DE9F04104460E480578904688
:206630000E46102001F0ACF8071C10D03246042101F084FB284601F005F83872FC6001F0CE
:20665000AFF83946424600F0F5F9BDE8F0810420BDE8F0810902002038B50F4C0546083C4C
:20667000204601F06FFCA8B9204601F027FD0446A068054209D0E3682269284600219847B6
:20669000002818BF4FF0FF3005D1204601F018FD041CEDD1002038BD8C0C0020D0B50446C1
:2066B0003C20FEF793FF071C14D000213C22082301F0C0FD207AB86160893862E068386171
:2066D00060683946002201F0B1FD0646384600F03DFE16B96FF00300D0BD0020D0BDFEE75D
:2066F00000B500213C220823ADF13C0D684601F0A1FD094800F5B27107914FF42071089199
:2067100003210691054900236A4600F58A7001F075FD0FB000BDC046080200203D00000052
:20673000F0B515460E4604461F1CADF1340D08BF00230DD0684600213022082301F05AFD36
