:20000000183F0020A99A0000FDC90110FDC90110FDC90110FDC90110FDC90110FDC901101C
:1C002000FDC90110FDC90110FDC90110FDC90110FDC90110FDC901103BCA0110A4
:20003C002DE9F04FADF1540D07F0BAFD1449002006F058FF134900200AF04AF912490120A3
:20005C000AF046F9002009F0C9FD012009F0C6FD09F0E4FDDFF834B00BF12C0420460BF06D
:20007C005BFB4FF00108002021468BF8348009F0F5FDCBF82400002800F0ED8208E0C046C1
:20009C00000003015D8E0000DDBA000008020020CE4F11230A243B621E20FC61142238610E
:2000BC000D267A62CA4B7E61CC4C5C62C948D861CB4A9A62C84E1E62C7F80080CA4C5C6346
:2000DC000525BD61C748D862C84A9A634FF6FF715982198200267E60BE60FE60BE62C54C88
:2000FC00DC64C3485864C44A1A6583F8008083F802804FF0800AA3F804A04FF04009A3F82D
:20011C000690A3F808A0A3F80A90D74F1F63D84C9C65D6481866D749D963D74D6E702E7050
:20013C00AE705E709E81DE81DE70DA4A5E61D74FDA65D94C9F644FF0FF30A070E070D44F8A
:20015C005F650746A7713A46D548227104271864D24A677102279A61AE2067703C222270D6
:20017C000BF074F9D5200BF071F950460BF06EF9A8200BF06BF93F200BF068F9D3200BF0D9
:20019C0065F930460BF062F948460BF05FF98D200BF05CF994F90100012814BF142010204D
:2001BC000BF054F920200BF051F930460BF04EF9A1200BF04BF9C8200BF048F9DA200BF085
:2001DC0045F912200BF042F981200BF03FF994F90100012814BFCF209F200BF037F9D9202D
:2001FC000BF034F994F90100012814BFF12022200BF02CF9DB200BF029F948460BF026F9FE
:20021C00A4200BF023F9A6200BF020F92E200BF01DF9AF200BF01AF90BF0A8F909F0D6FA6C
:20023C00C94C04F122010A6803A802600979017103A805210BF0D6FB0AF010FF04F11D0149
:20025C000A6805A802600979017105A805210BF0C9FB04F136010A6807A8026009790171D8
:20027C0007A805210BF0BEFB04F127010A6809A802600979017109A805210BF0B3FB04F1CE
:20029C0031010A680BA80260097901710BA805210BF0A8FB04F12C010A680DA802600979F1
:2002BC0001710DA805210BF09DFB20680421139013A80BF097FB5C46ACA184F8648004F166
:2002DC0065004F680A6847600B8902604FF05F0A03815A2284F8792060694FF0FF3231466A
:2002FC00134606F0EFFE0746F80803D330460BF051F92671380904D340460BF04BF984F8D8
:20031C0004807808E8D320790028E5D00BF0E6FA31464FF4807208F0FDF940460BF0DCF9C1
:20033C0040460BF0D1F9282008210BF0C5F9CA480BF011F994F8647030460BF09BFB67B196
:20035C0010204746C74A0090314603460197921C37460297384607F0B3FF70200BF08AFBD0
:20037C0047461020BF4A009031460346019702F5D17270203746029707F0A2FF84F8088037
:20039C004146384608F08EFB2078A16A2672002800F0F180401E00F08580401E40F0518144
:2003BC0009F0BCF881460BF0AAF8687880F0010068700BF00BFB687800BB30200090A94B77
:2003DC00CDF8048003F2627202971EE0C82E00202C2E002047470000C5B60000E5AC00002E
:2003FC00B5B60000A5B60000051400008DA70000E5AC0000F9930000A1970000302047469C
:20041C00009033460197984A02930A201021302307F056FFE779B9451CBF5FFA89F7E77144
:20043C000FA83146062208F075F90FA88BA13A4608F0BCFF24200AF0FFFC02200BF04CF933
:20045C0040460BF041F90FA80BF0CCF840B2401E012813D9801E012803D9801E12D1442062
:20047C000DE050200BE0C046C9770000AD720000E1B80000115D0000502F00205C2024214C
:20049C000BF01AF90FA80BF066F8D0E099B10000D5B8000095B60000FC0B00209D78000014
:2004BC003D5B0000714800885FFA80F90BF027F80BF08CFAA87868B1401E09D0401E05D037
:2004DC00401E18BFAE7011D1694A04E0694A02E0694A00E0694A3020474600903346102142
:2004FC0001970A200293302307F0EAFEA878A779401CB945C0B200F00300A8701CBF4F46D0
:20051C00A7713146032214A808F004F91A200AF093FC03200BF0E0F840460BF0D5F878B229
:20053C00002813D47AB214A84CA108F03FFF14A80BF058F840B2401E012802D9801E0FD1AC
:20055C000AE0562009E0C046D0CC00008DF852A08DF851A08DF850A044201A210BF0ACF8F4
:20057C0014A80AF0F8FF84F809806AE04D454D53495445434800424803464769D3F81090D6
:20059C000BF0B8F988425CD00BF0B4F9A0620AF0B6FF03200BF0A0F840460BF095F813204D
:2005BC001C210BF089F85FFA87FB5FFA89F9BBF1180F21DCB9F13C0F1EDCBBF10A0FA6BFC7
:2005DC005FFA87FB25A126A111A85A4608F0EEFE287800280CBF20203A20B9F10A0F8DF8E5
:2005FC004600ACBF1DA11EA14A460DF1470008F0DDFE11A80AF0AFFF287880F001002870FF
:20061C0003200BF069F840460BF05EF837201C210BF052F837201C21122218230AF0B0FFE3
:20063C00287800280CBF20203A2000F0D9FC84F80980E078012804D0E06884F8038000F01B
:20065C0021F8607A00283FF447AE0220072108F029FA667240E6FEE76D020020256400C01B
:20067C00302564007CBD0000BEC30000482100209EC200007EC100005EC000003EBF0000A8
:20069C00C82E0020DFF800F0DFBF01102DE9F04F0120ADF15C0DADF81A000827ADF818701A
:2006BC0006A809F049FE00263546DF4C8DF854509DF81C006070A6700898E0614FF6FF700F
:2006DC00A08238460AF049FC5FEA00080CD0012112220BF0E3F80AF050FC15A90123D64A7E
:2006FC000091414609F0C0FC9DF85400DFF86C83324601232070414604F1A80009F0D2F84F
:20071C0004F1CC0032460223414609F0CBF804F1F00032460423414609F0C4F804203146C1
:20073C001022E07004F1480007F0F4FF04F158003146102207F0EEFF2562267266720720FC
:20075C00E67204F148021021A072022009F0DEFE04F158020320102109F0D8FE042004F121
:20077C002002014609F0D2FE19E0A078B4F84050B4F84230B4F84420B4F8461006280ED1A1
:20079C00ADF84250ADF84430ADF84620CC48ADF848100BF017FA012010A900F0E3FB0A20F3
:2007BC00ADF80A00ADF808704FF0FF35039502A809F0C2FD002840F0E38130460C90ADF871
:2007DC0024700925ADF8265009A809F0B5FDDDF82C900028CDF8309040F0D281BDF8280026
:2007FC00102840F0C18160789DF82A10884240F0BB814D4628884FF6FF71814200F0AC817E
:20081C002B78A23B00F091812E3B40F0AD81A878B046002800F05E81801E00F03681401EC3
:20083C00012840F20B81801E00F0B980401E7FD0401E60D0083800F06981801E40F06B81DF
:20085C0094F83E30A888052BADF834004BD001208DF83E009A480BF0B5F994F83E000128CC
:20087C0020D004281ED003280DD002280BD00C98C188ADF836100189ADF838104189ADF887
:20089C003A1080892BE0B4F84000B4F84250ADF83600B4F84430ADF83850B4F84600ADF8F5
:2008BC003A301CE0B4F84000E9888842D8BF081CADF836002989B4F842008842D8BF081CD4
:2008DC00ADF838006989B4F844008842D8BF081CADF83A00B4F84610A889814200DC0146C0
:2008FC00ADF83C1001E08DF83E60B24A0DA8122109F0C1FE0FE1B0480BF064F96878002803
:20091C0040F00981E888E08228892083688960836B480AF039FF002840F0FD80A56A002D11
:20093C0000F0F9802B68E08A218B628B9847F2E0B5F804A00A200AF010FB5FEA00080AD040
:20095C00012115220AF0AAFFA8F808A00AF015FB41460AF09BF8BA483146062207F0DAFEA9
:20097C00E68226836683A879607355480BF02AF991480BF027F94FF001084FF6FF706379E6
:20099C00A0824BB9A879082814BF04200520A07040460AF037FDBEE00320A070BBE0687898
:2009BC00002843D1A649281D02680A60808888800623A3706889A082E889E082288A208350
:2009DC00688A6083E878207394F83E00012818BF022808D11F2009F0DFF94FF47A714143A4
:2009FC00374809F0B5FB95F803B0B5F80AA014200AF0B3FA5FEA000800F090800121142298
:200A1C000AF04CFF88F808B02D1DC8F80C50A8F810A0042088F812000AF0AFFA814A4146DC
:200A3C0009F004FB7AE0C04604100020687831286AD12671042022E0ABB800006878002872
:200A5C0062D1A878618AA278032813D02079657931B9012814BF6671267107E021B400008D
:200A7C00054303D0724809F073FBA278072AE1D1062004E0062A06D0207910B90320A0707C
:200A9C004CE00220FBE70720F9E7687800283BD1EB78A078E179ABB9022818D0072816D08F
:200ABC00062802D16179012911D103280FD060480AF06AFE58B901200AF0A4FC07E0C04666
:200ADC00D01000205F4A404608F0B0FC68706878D0B920E06878B8B9564A0220102109F0A9
:200AFC002FFD554A0320102109F02AFD5648ED1C29680160AB888380544A01252846A17980
:200B1C00A57008F093FC48B1A77007E0A888464A102109F097FDB8F1010F25D1606A18B364
:200B3C00016809B3A07888471EE0687913281BD12889012808D1A07B022805D11E480BF058
:200B5C0041F808F08BFE0FE0052009F025F90146194809F0FDFA07E06888C00B04D3374A02
:200B7C000420014609F0ECFC0C9848B1ADF810700320ADF81200CDF8149004A809F0DCFB8C
:200B9C00208A65792179420831D320F0010055EA010320822BD08DB92D49207A8DF84A00B3
:200BBC00657A8DF84B500A6813AB1A608988998007E0C046EFBA0000F410002003208DF8E4
:200BDC004A00A07AE57A194A8DF8520006218DF853500DF14A0008F07BFF616A30B1A77030
:200BFC0021B1086810B1096838468847208A810807D3184920F002002082304600F0B2F9E5
:200C1C00208AC108FFF4CBAD20F00400A57B2082681E3FF4AAAD401E7FF4C1AD08F01EFEA1
:200C3C00BDE5C04673B8000013BB000007BB0000AC1000204C1000205C10002024100020FD
:200C5C003C1000208B100020301000206C1000203610002042100020BA482DE9F84F0025F9
:200C7C00B94CB749056094F8E200002800F06381012800F02F81B54E02283CD0032840F027
:200C9C005A8151F8250CD4F8B8100029A0F5C060C4F8D400B8BF49420028B8BF40428142FB
:200CBC0026DA4FF08057D7F8A4014568B4F8BC0030214FF47F42082300903046A847D7F835
:200CDC00A4014568B4F8C00004214FF4F802122300903046A847D7F8A401B4F8D0704568A1
:200CFC0020214FF440620A2330460097A847012584F8D8501AE151F8258C0AF02DFE2F4630
:200D1C0000B901273946924F38680028FCD0B146012609F10409D9F82CA03E6009B10AF0CE
:200D3C0021FECAF30720C4F8BC000AF015FEAA4600B9B2463B68002BFCD0D9F800B0BAF1A8
:200D5C00000F3E6001D00AF00DFECBF38440C4F8C0000AF001FEAA4600B9B2463B68002B8E
:200D7C00FCD0D9F81C90BAF1000F3E6001D00AF0F9FDC9F38120C4F8D000B8F5C061C4F882
:200D9C00B81000F09C8094F8D80068B9C4F8D410D4F8C000C4F8C800D4F8BC70C4F8C47046
:200DBC00D4F8D030C4F8CC30D4F8D410D4F8BC30002954BF02206FF0010004F1C80217682F
:200DDC0001EB41014018411000EB917107EBA1001060D4F8C810C4F8C43000291CDD1E2973
:200DFC003CDDD4F8CC0030B93429B4BF15391E21C4F8C81025E02A29BABFD4F8C8000B38A4
:200E1C001E20C4F8C800D4F8C4003F28B4BF401C3F20C4F8C4001FE0D4F8CC00032812D0AB
:200E3C0011F10B0FC6BFD4F8C8000B30301CC4F8C800D4F8C4000028C4BF401E051CC4F8E0
:200E5C00C450032508E011F1150FC6BFD4F8C8001530301CC4F8C800C4F8CC504FF0805710
:200E7C00D7F8A401B4F8C43030214FF47F424568364800930823A847D7F8A40104214FF439
:200E9C0000321123456831480096A847B4F8C860D7F8A40104214FF4F802122345682B4826
:200EBC000096A847D7F8A40120214FF440620A23B4F8CC60456825480096A84701E084F8F6
:200EDC00D85040F2FF50404502D8801C40452DD208202EE051F8251C1E4F4BF2F5204843C4
:200EFC00060A3868C0F3814001280AD109F040FF08F0CAFF0AF03CFD3111C010484306EBF4
:200F1C00E03694F8E50030B91348006820F07F408019460801E084F8E5501048310C06603F
:200F3C00012741600E4D8760287808B90B2000E0052084F8E40005F07FF9BDE8F88FC046FA
:200F5C002D400C402C500C40581B002000A00C4000800C40B43F0050102009403C600C4005
:200F7C0049CF00002DE9FF410E4605461A4C7188E08A81420CDCB188814209DBF088218BD0
:200F9C00884205D13089618B884208BF18271FD0052008F001FF77888046F188B388ADF8F6
:200FBC000270A08AADF806100C4AADF800003789ADF8043011216846ADF8087009F05BFBDE
:200FDC00071C05D1A57304F1F000414609F0C0F838460090BDE8FF810410002025BB000080
:040FFC0006F056B9EC
:201000003C000000000000000000000034100000000000000000000001000000000000004F
:1C10200000000000000000000000000001000000000000000800000000000000AB
:20103C003400000000000000000000006810000000000000000000000100000000000000E7
:14105C00010000000000000000000000080000000000000077
:2010700030000000000000000000000098100000040000000000000001000000FFFFFFFF87
:10109000FF00000001000000080000000000000048
:2010A0002C0000000000000000000000C4100000040000000000000001000000FFFFFFFF2F
:0C10C000FFFFFFFF080000000000000020
:2010CC0038140000E410000095A1011091A70110A1C2011009B2011041B8011000000000EA
:0810EC000000000032000000CA
:2010F400280000000000000000000000141100000000000000000000FFFFFFFF0000000093
:081114000800000000000000CB
:20111C00341400003011000065C2011069C101101BC2011091BA011000000000000000006D
:04113C00300000007F
:20114000341400005411000071C20110A5B6011099BF011045B601100000000000000000BD
:04116000310000005A
:201164002400000000000000000000008011000000000000000000000000000008000000AE
:041184000000000067
:20118800240000000000000000000000A41100000000000000000000000000000800000066
:0411A8000000000043
:2011AC00240000000000000000000000C8110000000000000100000000000000080000001D
:0411CC00000000001F
:2011D00000000000E420002004000000000000000000000020000000701000003000000007
:2011F0001C110000EC2000200400000000000000000000000C00000030130000180000001B
:2012100040110000F42000200400000000000000000000002400000048130000180000009E
:2012300000000000FC20002004000000000000000000000010000000A01000002C00000072
:20125000CC10000004210020040000000000000000000000200000006411000024000000A0
:20127000FFFFFFFF0C2100200400000000000000000000002800000088110000240000002C
:20129000FFFFFFFF1C210020040000000000000000000000580000003C1000003400000009
:2012B000FFFFFFFF242100200400000000000000000000001000000060130000180000001E
:2012D000FFFFFFFF2C2100200400000000000000000000001C000000AC1100002400000094
:2012F000FFFFFFFF3421002004000000000000000000000038000000F41000002800000005
:20131000FFFFFFFF3C21002004000000000000000000000054000000001000003C000000A0
:1813300018000000000000000000000040130000080000000000000032
:1813480018000000000000000000000058130000080000000000000002
:18136000180000000000000000000000701300000800000000000000D2
:08137800010000005CD0000040
:0413800030BF7047C3
:041384000100000064
:0413880000000E0053
:04138C0000000F004E
:041390003200000027
:041394000100000054
:04139800F81F00201A
:04139C00000200004B
:0413A0000000000049
:0413A400FDC901106E
:0413A8000000000041
:0413AC00000000003D
:0413B0000800000031
:0413B4000000230012
:0413B800C01E002033
:0413BC00010000002C
:0413C00010200020D9
:0413C400080000001D
:0413C8000000000021
:0413CC00000000001D
:0413D0000000000019
:0413D400080000000D
:0413D8000000000011
:0413DC00000000000D
:0413E0000100000008
:0413E400581F00206E
:0413E80006000000FB
:0413EC0001000000FC
:0413F000281E002093
:0413F40000000000F5
:0413F80000000000F1
:0413FC0000020000EB
:0414000000000000E8
:0214040070472F
:021406002A00BA
:021408000100E1
:02140A002500BB
:02140C003000AE
:02140E003100AB
:021410003200A8
:021412000100D7
:0114140001D6
:0814180003000000FCCF0000FE
:081420000000000000000000C4
:0414280000000100BF
:04142C0000000300B9
:0414300083C4011060
:041434003C14000064
:041438003C14000060
:04143C0000000000AC
:041440009000000018
:041444009000000014
:0414480000000000A0
:04144C00102000204C
:041450006BB6000077
:041454002000000074
:04145800A8CF000019
:04145C00D8CE0000E6
:0414600009C30110AB
:0414640083A200005F
:04146800F7A90000E0
:04146C0095C801100E
:0414700097C8011008
:041474000000000074
:0414780003CC0000A1
:04147C00D0CD0000CF
:04148000E8CD0000B3
:04148400B8CD0000DF
:0214880008005A
:02148A00090057
:02148C0001005D
:02148E0000005C
:01149000015A
:041494000000000054
:041498000000000050
:04149C00000000004C
:0414A0000000000048
:0414A400EDBB00009C
:0414A80015A2000089
:0414AC0031AF00005C
:0414B000F9A500009A
:0414B4005BA7000032
:0414B800F99C00009B
:0414BC00058900009E
:0414C000C7B80000A9
:0414C4004D91000046
:0414C8000DC801103A
:0414CC001DC8011026
:0414D0000800000010
:0414D40024000000F0
:0414D80018000000F8
:0414DC0028000000E4
:0414E00020000000E8
:0414E4003C000000C8
:0414E8000C000000F4
:0414EC0034000000C8
:2014F00021B1C968814201D1012070470020704738B505460AF034FB2C680CB121682960D1
:201510000AF030FC204632BDF8B506460F46346800201546386034B90AF022FB376095B162
:20153000012129700FE005B128700AF019FB00E0246821680029FBD1BC4203D10AF012FCD1
:201550000020F2BD27600AF00DFC0120F2BDF8B50C6805460AF004FB0026074634B100F0A5
:2015700009F800B126462468002CF8D101F083F83046F2BD21462846B2E700213022DFF873
:20159000340C4A43104490F82F20130603D5491C0829F3D3002070472DE9F8438046894639
:2015B000164600273021DFF80C0C7943441804F12C05B5F90000484508D1214600F035F981
:2015D00020B1300008D0E878304205D17F1C082FE8D30020BDE8F2832046FBE738B5042852
:2015F0001BD1DFF8E04A04F1E40528460AF082F898B128460AF0A6FADFF8BC1B0A6850432A
:20161000B0F5967F09D228460AF0A2FA052009F05DF90120E07701F003F9002032BD70B514
:2016300000F026FADFF8945B064695F8340020EA040485F834400024286820B19C300AF069
:2016500059F800B10124686820B19C300AF052F804431FD195F83400002808BF002C19D1A5
:20167000A86AD0B190F820108A0707D5C46900F032FBA86A00220221A04708E0446900F095
:201690002AFBA86A00224FF400030021A0470020A86270BD304601F04FBD70BDF8B50023CC
:2016B0009E460AB94FF0010E002600291CBF8D6A002D6FF05047DFF804CB19D0446ABCB137
:2016D000C968C368994207D0DCF8003099420CBFDCF80860DCF80C60A408A4EB9504A61B31
:2016F000BE4229DA06F18056B6F1805F24D90123002A1CBF546A002C1BD0816AC9B1D268EA
:20171000C0680026904207D0DCF8000082420CBFDCF80860DCF80C60C6EB9406A6EB910670
:20173000BE4209DA06F18056B6F1805F04D94FF0010E03EA0E00F2BD0020F2BD884201D321
:2017500000207047012901D101207047022070472DE9F047DFF86C790E46B96A8046FFF7B9
:20177000BFFE002400254FF0010948B1B86A90F82E003146FFF7E2FFA146040018BFBD6A02
:20179000786AB0B1D7F824A010E0514600F04DF850B19AF82E003146FFF7D0FF4FF0000962
:2017B00008B10CB955460446DAF800A0BAF1000FEBD1B9F1000F18BF022034D1002C18BF14
:2017D000002D2FD0B86A2E4686420CD1B96A00F02CF840B1B86A90F82F1041F0080180F8CF
:2017F0002F107E6A5EB1314600F01FF828B196F82F0040F0080086F82F003668F2E7DFF85C
:20181000BC0900F13201C0F82880C0F82C8004F001048A7842F001028A70AA8D02860C70A6
:20183000012000E00020BDE8F087404658E62DE9F04F8DB00446DDF85880DFF83C7B002060
:20185000787388F80000894693469A46FFF795FE050042D001F0F3FAA8853868A04205D182
:20187000387BC10744BF00F0FE003873DAF80000A8629BF80C0000F00F0002280CBFDBF8FF
:2018900008000020B9F1000F686222D009F19C0009F030FF002857D101F04AFA040021D162
:2018B000706AF8B101F049FA0A90B06A20B1726AB16A00F055F838B9B06A98B9726A6946C1
:2018D0002846FFF7EBFE68B1706A286075620120787328460DB0BDE8F08F012088F800005D
:2018F0000020F7E7787B0028F3D114B9746A00E024685CB3226800F032F80028F8D02068B9
:20191000286025600220E3E7787B0028E1D1746A24B100E0246820680028FBD19BF80C10A7
:2019300001F08F010229D4D12CB1002200F017F80028CED108E0B06A0028CAD0B16A002280
:2019500000F00EF80028C4D10220C7E79AF804104846FFF7FDFE0128D6D10420B8E72146D5
:2019700028469BE670B5002009F02EFBDFF854670FF22D51002200F067FED6E9004509F07C
:2019900019FE844231BF041B401E041B641C307EDFF8E859240BF46000281CBF697D0129F2
:2019B00003D0307CC002A0422BD20121317600206875DFF8CC0901680A0622D540F60900D6
:2019D00028800021687B696000F0AAFC6873287B00F0F00028730AF0C3F8DFF8A8194A69F3
:2019F00022F002024A616FF002020A610D600B699C07FCD50A614A6942F002024A610AF0FA
:201A1000B1F90020C6E90000F06008F061FA287D20B9F16B01F140000AF0C8F8DFF8201CC1
:201A30000020086070BD10B500F022F8DFF858190A7814430C700AF095F9832010BD70B558
:201A500000F016F80646DFF840090178012559B1027822EA04040470007820B90821DFF810
:201A7000E40B0AF0AFF8832500F035F9284670BD04460AF075B810B50446207B00F00F004B
:201A900002281DD101F059F9A168081ADFF83416C96B8008002914BFC96840F6C41101F5A5
:201AB0007A72824238BFB0F1405F09D2401ADFF808170A68B0FBF2F0012802D8012010BD14
:201AD000002010BDDFF8FC250146906A00B9704710B5906A90F82F00C3061CD5506AD0B1F5
:201AF000506A90F82F00C30615D4906AC068536ADC68A0420FD111B1012908D010BDBDE898
:201B100010404FF4004102F144000AF05BB8916A11630020906210BD70B5DFF8A865746A68
:201B30000120FFF7CFFFB16A002944D1002C3BD0E068F16B884218BF4FF4806135D1A068A9
:201B5000FFF799FF050015D0306B98B90120FFF776FF83282FD1F06B783009F0F9FF06F1EF
:201B7000E4042946204609F0EFFF2046BDE8704009F0ECBFD4E90401DFF808285369034387
:201B900053610020D3680B43D360D061A0681060D0690028FCD006F12400FFF7A9FCB06207
:201BB0000020BDE870408DE7022106F14400BDE870400AF007B870BDDFF80805C16B8A6891
:201BD00001F12803506830B1984218BF0246F9D101E000207047507B10F00F0F02BF488D45
:201BF00040F609018842F4D1012070472DE97043DFF8B00BDFF8CC5409F0E6FB0446DFF8E1
:201C1000A80B01680668A86A06F4602668B1214089060AD5E862D0E9068949EA0403C0E93B
:201C300006834FF4005100F0DDF834400BD0DFF8EC0B81690C43846105F19400BDE8704395
:201C5000002109F0BFBFBDE8708370B509F088FFDFF8C84B0646A06910F4602F2FD0A569C0
:201C7000ED012D0EE80748BF002506D4A80748BF012502D4680748BF0225681D002140B24F
:201C900000F06CFEA169012205F1110082409143A16100F020F804EB8506F06838B154F8FF
:201CB0002500691DF56800224FF00063A847DFF8F81A086828B90220FFF7C1FE01E000F077
:201CD0000AF8A06930B1BDE870400021DFF8D40C09F078BF70BD30460AF044B8F8B5DFF88E
:201CF000E45309F065FBAC6A002C024677D0100704D490075FD5286B00285CD10021A962A5
:201D1000D4E90401236A40F00A0632401A432262D4E906673243C4E90627DFF88C6AB26871
:201D30008243B2603268D4E904018A4332602146002205F13400FFF7E7FB022100F052F819
:201D5000286B00284BD0E168286BC268914246D1286B90F82F0094F82F10084310F0070046
:201D700018D0C10701D4810707D5286B90F82F1041F0010180F82F1005E0296B91F82F20D5
:201D9000104381F82F000022296B05F13400FFF7BBFB0DE0286BA8622A6BB368D2E90401B2
:201DB0000343B3602A6B3368D2E904010B43336000222A6313E0D4E9040102420FD0EC6214
:201DD000D4E90401236A02401A432262D4E906011043C4E906014FF4804100F003F8BDE822
:201DF000F14099E605F1440009F0ECBEB548B0F93810B0F93A00814204BF0120FFF71FBEFB
:201E100070470720FFF70BBCF8B506460F46D6F868C014461D46BCF1000F18BFE047D6E99D
:201E3000180104400D400020854208BF844217D0802239463046FFF7AFFBC6E91C4538B15D
:201E5000D0E90623A243AB43C0E90623B16E41600020B06606F14000BDE8F24009F0A6BE8A
:201E7000F1BD704780B509F0ABFE964A0146D06B126CBDE80840104780B592480FF20D5283
:201E9000016C914206D10120FFF7CDFDBDE8024000F0CBBCBDE804400421443009F092BE11
:201EB00070B584B009F084FA864D0FF2E1410446286C884222D10022DFF8841BDFF85C697D
:201ED00005F1780009F05CFE0120FFF7ACFD012068764FF6FF710020A876B08B884208D1A1
:201EF0000221ADF80010684608F05CFFBDF80800B083FFF761FE08B9FFF70EFEDFF83C0CD2
:201F1000044203D04FF00051FFF76CFF7FBD80B509F04EFA800707D5BDE804404FF4805195
:201F3000DFF8200709F04EBE01BD10B5654C0146E06B4268506838B1012908BF08F0EEFDA9
:201F5000E06B416848688047E06B42689068002804BFD168002914D0DFF8901B08680028CE
:201F7000FAD000230B60906800B18047E06B4068C06800B18047BDE81040DFF8B00C08F076
:201F900011BF10BD70B54F4D6C6B002C7DD0A168202000291CBFC2B2002A7CD00A8840F684
:201FB00003039A421FBF40F604039A424968401EEFD16BE000224FF0804304E000224FF0B5
:201FD000805300E0002394F82F00010706D594F82F0010F0070F18BF43F08073B4F92C10C6
:201FF000E0686668B04709F0BBFD0646688F401CC0F30B0068870020696B81F82F0005F135
:202010003400FFF775FAFFF766FEB5F93A00B5F93810884239D1E26892F8C210052001B18E
:202030000720FFF7FCFA6548E3680268934208BF426893F8C200002100B91968002583F88D
:20205000C2504AB192F8C20010B182F8C25003E01068884228BF014619B9BDE8704001202F
:20207000EDE411F1010F10D053480268E068B1FBF2F1012998BF0121783009F065FDE068C3
:20209000BDE87040783009F061BD70BDE0681822283005F0EBFF226A002020626068002818
:2020B000A1D094F82F1001F00701012906D002293FF480AF04293FF481AF83E700224FF0F3
:2020D000005380E7682B002038B50D46A807DFF8604B18D5FFF756FF606B25F0020510B132
:2020F00045F0020109E0680702D4606A00285FD004F1E40009F02CFD042104F14400BDE84B
:20211000344009F05FBD680752D5012084F82000042008F0DBFB09F04DFAC4E90001606A29
:2021300078B1C568E06B002818BFA84208D095F82000410704D5EB69002204212846984777
:20215000E563E06B4168DFF8EC0A0A780260022008F0BCFB112005F0E5FD0120A076E06B27
:20217000017C002919BF207E00280E2005F0DAFDE06B844A40688168002904BFC06800282B
:2021900004D00021D161DFF8A40B106040F2FF70DFF8AC14086000219161DFF8B00C50611B
:2021B0000FF21D0020641920BDE8324009F0E0BC31BD0000E8290020542F0020902E0020E8
:2021D0002DE9F0430546880085B040F195800020FFF7ABFE6B4EDFF8AC0BDFF8549A674FD7
:2021F0000021F161306040F60A08012008F0ECFE0FF29910C9F84000A7F80080002078809F
:202210000021387B00F0F00038737960787B00F087F87873AA681446618099F8181009B169
:20223000687CA0B1108840F60201884218BFB0F5C15F05D1218A4FF60F400140218204E045
:20225000218B4FF60F4001402183002068746946104605F06FF9684609F084FA40F604018B
:2022700040F60302606800281CBF0388434518BF934244D08B4218BF0446F3D13FE0288DEF
:20229000A8B100216985E96205F134004278017802F0F00201F0F00142F001020170427000
:2022B00005F128007860787B00F0F00078734FF6FF30A9680A8A02400A82F0690028FCD026
:2022D0000021F16199F81F00012806D107F01EFE0028FBD009F062FC0CE0012008F008FC65
:2022F000012807D0607B00F01BF860730FF23D00C9F84000A868306005B0BDE8F0836760AA
:20231000607B00F0F0006073D9F8240080680088904218BF8842B2D10020C9E90000C6E745
:2023300000F0F00040F0010070470000DFF8202B114200D17047012010B508F0D9FB0128ED
:20235000DFF8EC4806D10FF245010C4821640D49086010BDDFF8582C10683221B1FBF0F12D
:20237000012998BF0121E434204609F0EDFB2046BDE8104009F0EABBB82E0020142F0020E9
:2023900000000440001004402A2F00202DE9F84F07460C466004DFF898681FD509F0E0FB1D
:2023B000F56A0146A5B12F6AB80711D400202862084609F0D7FC6868002818BF002F0AD038
:2023D000B5F92C10E8686D683A460023A84702E0084609F0C7FC24F4804427E1A0006FF479
:2023F000807940F6020557D596F8200028B1042008F078F8002086F8200009F0B1FB80462F
:20241000B8680188A94218BFB1F5C15F00F026F9D6E900AB0020834508BF824521D0042077
:2024300008F066FBE8B1D6E9005109F0C3F8854231BF451B401E451B6D1C788AF96800EB2A
:2024500015308842F86002D209184908F96040F2D171F868A0F5FA70884224BF40F6C411DB
:20247000F96000F0F7FCFFF7A7FB58B1BD6900F0EFF8A847706A18B1192009F07FFB01E053
:2024900044F002047D6900224FF0806300213846A84724F00054C9E0A00709D5FFF772FD3F
:2024B000706B002824F0020401D044F00204BDE060051CD509F054FB756A074695B1F06BDC
:2024D00010B1783009F044FBE868F06300F0D3F809F070F8B0604FF400610FF2A110306492
:2024F00000F006FB0020707724F480649EE020073ED5707F012802D10021717735E0B06AFD
:2025100098BB0120F0760021DFF8AC0B71763064FFF728FA022007F0E5FF112005F0A4FBCD
:20253000F16B087C10B90E2005F09EFBF07F012804D10021F177052007F0D4FF0020F076BB
:202550003077DFF8780B0178012904D100220270042100F0CDFAB6F93A10B6F93820022060
:20257000914208BF0720FFF75AF824F008045DE0A0040FD5F56A002D1CBF6868002806D028
:20259000B5F92C10E8686D6800222023A84724F400544BE0E00438D5FFF70EFB20B1D7F8A1
:2025B00018C000F055F8E0470022DFF8941400F04BF80020B07701207076B8680188A94219
:2025D00018BFB1F5C15F00F049F800207874B56808F0F0FFDFF86825F36B17680421BB42AA
:2025F00008BF00214DB1854231BF451B401E451B6D1C02F108002D0B45500020B06024F477
:202610008054192009F0BAFA10E020040ED5B06A816848880028FAD0B16A88684188012936
:20263000F5D0192009F0AAFA24F4004434B1214606F14400BDE8F44F09F0C4BABDE8F18F88
:2026500000000460AC2B002006F1780009F098BA00224FF0007349463846704705D1028A5B
:202670002D2161F3091202827047028B2D2161F3091202837047384609F074BBF0B5044637
:20269000080585B07BD5DFF8A865002070760120B077F06B90F820104A0703D5C3690022DC
:2026B000042198470022DFF8F81ADFF8F85AFFF7CBFFDFF8E40B3064F06B406881680029A3
:2026D00004BFC068002804D00021E961DFF85C0628600120FFF729FC0020E86140F60202F8
:2026F000DFF8A00628600020A16848800888904218BFB0F5C15F05D10A8A4FF60F40024096
:202710000A8204E00A8B4FF60F4002400A830120607440F6040240F6030340F60A0C4868D8
:2027300078B3078867451CBF9F42974229D00146F5E7208DA8B100226285E26204F13400F6
:202750004378027803F0F00302F0F00243F001030270437004F128004860487B00F0F000A6
:2027700048736946A06804F0E5FE684608F0FAFFE8690028FCD00021E961A068286005B06C
:20279000F0BD00204860487BFFF7CAFD4873706A80680088984218BF9042CAD10020B060E1
:2027B000DFE7000020000E000C10044038B5DFF88044A16A61BB606A78B3617E29B1012037
:2027D000FFF731F9BDE832402FE0A07E28BB09F0C7F90546606A8068FFF74DF9E17E21B17F
:2027F000DFF8D828012010700DE040B1E4340146204609F0A9F9204609F0A8F903E0A07F11
:2028100008B900F00DF82846BDE8324009F0AABABDE832400020FFF755B931BDF42E0020A5
:20283000042104F1440009F0CDB9192009F0A6B930B585B004F0BEF8DFF8880BDFF8884B42
:202850000168DFF8EC5341F002010160684608F099FFA078DFF8741B02906A4605F144001C
:2028700007F090FB684608F055FF2178DFF8D42B019100208DF808006B46192105F17800C5
:2028900007F052FA684608F07DFFE078DFF8B81B02906A4605F1940007F074FB684608F0E9
:2028B00039FF01208DF808006B466078DFF89C2B01901A2105F1C80007F036FA0023002205
:2028D000DFF88C1B05F1E40006F0AAFFDFF8E807DFF8802B28640023042105F5847008F0EF
:2028F00075FADFF8740B4FF6FF7181830021C177C5E9001129766983E96185F8201005208B
:2029100028740020DFF8541B08704FF4FA718C488160C16005B030BD10B5818B4FF6FF7280
:20293000914209D00024012202FA04F3194206D1641C64B20F2CF7DB6FF0010010BD9943C3
:20295000818304F10C00DFF8C81B0B6882401A430A600220FFF767F8204610BD70B5064691
:202970000C4609F0FDF8DFF8F01A0546C87F420702D58A7F964214D001228B8B02FA06F084
:202990000343DFF88C0B8B830C36016802FA06F621EA06060660006818B914B10220FFF72F
:2029B0004EF8C8E3FC2B00202DE9F041DFF82C6C0546706A0C460027844290461AD1FEF7FF
:2029D000D9FD18B394F82F0040F0040084F82F007F1C06F12400FEF78BFD0022214606F1F9
:2029F0003400FEF791FD746A5FEA0800E7D13846BDE8F081716A31B1086820B10A68A24241
:202A100001D00968F7E70C4600E02468002CEED02168FEF7B0FD0028F7D0216891F82F0083
:202A300040F0040081F82F0006F134000A6822607F1C0022FEF768FD5FEA0800E8D1D6E7AD
:202A5000ED1C00002DE9F0478246894602F001040327550809F084F819F1010F05F0010571
:202A70008046734E08D1B16A5046FEF739FD00280CBF706AB06A04E0002249465046FEF703
:202A90008BFD70B390F82F100A0629D5B16A884215D190F82F100122A240114380F82F1004
:202AB000002C14BFDFF8380BDFF8380B08F07AF9A5B1716A2A465046FFF776FF0EE0014691
:202AD0002A465046FFF770FF50B106F1E40009F03FF8B07E10B9022100F00AF8832700E0D9
:202AF000042700F0B7F93846BDE8F0871C10044006F1440009F066B870B504460D4609F0E4
:202B10002FF80646DFF8D40AC16B8C4201D0032070BD407E01280DD1284608F043F90446B1
:202B3000FFF7D9F804F0FF04012C01D1812070BD022070BDFFF7CFF8012070BD020000405E
:202B5000902E0020F0B50646DFF89C0A8BB015460029006818BF002D1C4663D00A78D040C7
:202B7000C0075FD571602846002104F0BBFDB56008F0F6FFDFF8747A0546387D02284FDA24
:202B900008B9FFF755FE387DDFF8641A41F82060401C387500F008FB34B903A80FF6882116
:202BB0001C2205F063FA03AC2068DFF8481A30600A466068F0600B46207C3074A0693062E1
:202BD00001207074608A7082E06800B10246B261606900B10146F161A06800B103467361C7
:202BF000A02106F1280005F097FD002106F1400007F0C0FF684608F060FF02966B460022DE
:202C1000DFF8F41906F1780006F00AFE6B460022DFF8E81906F19C0006F002FE304602E0C7
:202C300000F0C2FA00200BB0F0BD000001000706682B0020D0210840F8B5DFF8B05904467F
:202C5000287D002871D0DFF89469B6F93800B6F93A10884211D000F06BF828B9B16A204642
:202C7000FEF73EFC48B1B06A38B1B0F92C1000224FF0E043204600F0A4F908F071FF074608
:202C9000DFF86C0901688C4207BF0021016000214160287D401E2875C0B288BB707EF463FD
:202CB00001280FD1FEF7CBFE0220FEF7C8FEFFF7E2FC4FF0FF3104F1400008F0C5FC08F037
:202CD0004FFF074606F1440008F072FF06F1780008F040FF06F1940008F06AFF06F1C80054
:202CF00008F038FF06F1E40008F020FF06F5847008F09AF9207C012804BF0E2004F0B4FFCC
:202D1000F06BA04204BF0020F063FFF7B4FC04F1400008F045FF04F1780008F007FF04F1B9
:202D30009C00BDE8F24008F001BFF1BD5100070606F124012046FEF70ABC70B508F010FFE3
:202D5000DFF89828517E29B1DFF8B428146809F009F814E009F006F808F02CFC10F50030BA
:202D7000DFF8A028DFF8846841F10001A2FB004502FB01553169002024184D412C4620461D
:202D900070BD000001010E042DE9F04782B082460F4691461D4608F0E3FE8046FEF7EDFB90
:202DB000040046D00AF1780008F0D2FE00F047F83087A760202104F12E0787F80090656082
:202DD000308FA085C4F80CA0DDE90A52DFF8380828401140C4E904016A4600207870C4E98E
:202DF0000600214606F12400FEF78EFB08B30AF1C000A18D018000218170787840F08000E6
:202E100078709DF80000012809D1317F00291CBF707E002803D0012100207177307700F0C4
:202E300019F89DF8000008B1FFF7C0FCB4F92C0003E000F00FF86FF00100BDE8F687DFF865
:202E50009C67308F401CC0F30B0070470A00004004000020404608F085BF2DE9FE4FDFF865
:202E7000906780460F4614469A4608F079FE31688146884508BF716801A8029400903A466B
:202E9000029B4046FEF7D3FC040006F1320000900ED18178C6F8288041F00401817000F029
:202EB0003BFA9DF8040002285FD16FF002007DE008F1780008F04CFEDFF82057A08D28873F
:202ED000A76004F12E0702980179DFF83C073970C4F804A0C4F80C80DDE90CAB20210AEA80
:202EF00000000BEA0101C4E9040100207870C4E9060002984179012903D1787840F01000DC
:202F1000787000F009FA0098C178042905D10278B6F93010F06A00F01AF908F021FE81464E
:202F30000098C078022808F1C00602D100F042F829E0012809D105F1E40008F009FE00F0F6
:202F500039F8A86AF8B900F0E7F90098C078002818BF042826D10DF10502214605F1240025
:202F7000FEF7D2FA20B900F0D7F96FF001001DE0A08D30800021787840F080007870B170E3
:202F90009DF8050010B900F0C7F90DE0297F00291CBF687E002803D00121697700202877D3
:202FB00000F0BAF9FFF702FCB4F92C00BDE8FE8F542F0020787840F0800078700021B170F2
:202FD00070472DE9F0410C46002C054616461F4601D500201DE008F0F1FD804680222146B1
:202FF0002846FEF7D9FA040003D094F82F00010602D400F042F80BE094F82F0010F00F0F2E
:2030100009D000F03AF894F82F0010F00F0FFAD1022000212FE0D4E9060146F00A06304035
:2030300039400022914208BF904210D000F025F8D4E9060130403940C5E91C01D4E906232E
:2030500022EA000023EA0101C4E9060111E06168DFF8B805814202D06168A9666060C5E968
:20307000186700F00AF84FF0FF3105F1400008F0EBFAD5E91C01BDE8F081404608F06EBEB2
:20309000DCB500F01DF808BFDFF880352046FFF77BFE08E0DCB500F013F808BFDFF86C35AF
:2030B0002046FFF7DAFE0146204602B0BDE8D04000224FF0E04384E7D92000002B2F002056
:2030D000DDE906670446CDE900671800704770B5FEF7CEFC0546DFF81415DFF800650120EB
:2030F000487504F19C0008F033FD00F029F804BF707E00280CD1DFF8F81491F8340038B1FA
:2031100000F052F80720FEF78AFA08F029FD054600F016F80CD104F1780008F019FD0120E5
:20313000FEF78DFC707E012805D10121317702E0012084F8C2002846BDE8704008F012BE7E
:20315000B6F93A00B6F93810884270477AE442F0020277E40FF2D0411C2204F087BF00E0A5
:2031700000BF0022C8E470B5DFF87014CA6B90426FF07F0412D1487E80B108F0F1FC05463F
:20319000DFF88C0407F00EFE064600F00DF806F0FF00012802D13602301670BD204670BD45
:2031B0001F1F000000100440284608F0DBBD00002DE9F0410E461446832508F0D1FC032EDC
:2031D0008046DFF8187465D8DFE806F002071114B86A50B1B96A888D05E09F48808B4FF617
:2031F000FF71884201D0208055E0802553E0787E207050E024685021204605F08DFA002151
:20321000DFF8EC23080152F82130235004F10C0E0C234B431344491C1E7E0EF80060261DD4
:20323000D3F814C046F800C001291B699C4404F1080343F800C0E5DDB86AA0B1BA6AD368C4
:203250000801491C235049B2BA6A92F82E3004F10C021354BA6A536A221D1350BA6A936A68
:2032700004F108021350786AA8B1042913DC0A01C368A35004F10C0790F82E30BB54271D1B
:20329000436ABB5004F10807836ABB50491C006849B2E9E7032536E19D23000080B58022FC
:2032B000FEF77AF900B1806802BD2DE9F8430446CA480D46417E807F01431E4608BF6FF0B2
:2032D000010027D00A2129806A60DFF88C814046FFF722FB0746781F03281AD2AF7008F0B9
:2032F0003FFC8146284607F05DFD054600F014F805F0FF05012D06D108EB870040F8086C92
:2033100040F8144C05E001213846FFF727FB6FF001073846BDE8F283484608F023BD2DE9ED
:20333000F8430446AD480E46417E807F0143904608BF6FF0010038D0474F3846FFF7ECFAB8
:203350000546681F03282FD208F00AFC2A02814602F4706216434FF6FC703040AD490843EB
:2033700007F020FD00F0FF00012815D1F0040CD5A94901230A6805F10C0083409A430A60C2
:20339000BD77F87F40F00400F87707EB850040F8144C40F8088C05E001212846FFF7DEFAB1
:2033B0006FF00105FFF7B8FF2846BDE8F28310B54FF6FC742140BDE81040984B0022194332
:2033D000FFF79ABB002009403BD00000751E000070B582480C46417E807F014301D1012055
:2033F00070BD1D48C17F4A0707D5837F9C4204D101F0FB01C1770021817708F0B1FB0546DC
:2034100001212046FFF7AAFA4FF6FC7000EA042040F0816040F0010007F0C4FC06467E48B0
:20343000012201680C3402FA04F421EA04040460FFF7BAFE06F0FF06012E01D1812070BDCD
:20345000022070BDB11E00005B1C0000FD1B0000891E0000ED150000F42E00202A2F00204B
:203470002DE9F04107460C46154608F079FB5B4EB17E8046707E0143F07E0143062C41D8C2
:20349000DFE804F004070D10131F2D002868386036E001207874F8686030F86030E02868A7
:2034B00078822DE0286830742AE0286818B98020FEF7B9FA24E0012824D18020FEF7BFFA9E
:2034D0001EE0002904BF706A00280DD12968192008F058FB29681A2008F054FB10E00029D2
:2034F00004BF706A002801D000250CE0296806F1440008F06BFB296806F1940008F066FB76
:20351000832500E00325FFF7A5FC2846BDE8F0810C1004402DE9F84F0E46814630684FEA27
:20353000900A3F48824502D2307A022801D003202DE008F015FB2E4C8046606800278145ED
:2035500008BF012787F0010054F82050B9F1000F04F1320B04D009F19C0008F0CBF858B917
:20357000BDB105F19C0008F0C5F828B902212846FEF7EEF805000DD19BF80200C4F828904D
:2035900040F002008BF80200FFF764FC0020BDE8F28F02250C204743E01931680161317A4C
:2035B000017620480168BAFBF1F1012998BF012109F19C0008F0C8FA09F19C0008F0C6FADB
:2035D000FFF748FC012D06D19BF80020B4F93010E06AFFF7BCFD8320D9E70000682B0020ED
:2035F0000100020401000104D4210840142F0020902E0020731E0000FD1D0000131E000054
:203610000430044000093D00FDEFFF9F191E000001000304010003060810044001000406A2
:2036300041420F00542F0020FFFFFFFFC4090000000000000000000001003A010000000040
:20365000000000002DE9F843089C582B804617460CBFBDA5C1A5002908BFB8F1000F05D1AE
:203670002068411E2160302707702AE04FEAE7793E460246083E13D0083E0DD0002908BF59
:20369000B2F1FF3F04D94B463A4602F063F80BE0B2FBF7F0002107E008071209090902E059
:2036B0004807D208C9081043226800FB1783561E0029EB5C26608046137008BFB8F1000F5C
:2036D000D6D1206807F094FF401EBDE8F8837CB51446002806460D460094B8BF404264233D
:2036F0000A22C117FFF7AEFF702D0BD0502D09D00A2E09DA16F10A0F04DD2068411E2160C1
:2037100030230370002E01D42B2100E02D212068421E226001702068411E216005707CBD65
:20373000F8B517460D46044607F062FF024629460020002903DD8A42A4BF0819401E27B114
:203750001D686E1E1E602E272F708A4208DA8F1A302511461A68561E1E607F1E1570F9D173
:2037700000290CDD84420FD8071B7F1C196810F801294C1E1C607F1E0A70F7D1F8BD186810
:20379000411E196030270770F8BD2DE9F04F04461546A868ADF16C0D0028199302D003D51F
:2037B000062000E00120A860884630210FF2043B8DF800109BE80C00471C2046414604F003
:2037D000E3FEA14638BF88F00048002612E03020087059E09AE80C0003F00BFB761E884658
:2037F000814611E09AE80C00484602F09DFE761C88468146C9A20CCA414604F008FF0FF26D
:20381000143AEFD300201A909BE80C00484604F0BBFE09D01A9CC3A20CCA484604F0B4FEF6
:2038300038BF0124002CD5D1484606F089F883460DF1010105F05CFD841900EB0D0187420F
:2038500001F1010619DD3F1A584607F0B5F80B4602464146484602F019FC9AE80C0003F098
:20387000C8FA8846814606F06BF883460BF130007F1E06F8010BE7D101E06F447E1C16F8F8
:20389000010D35280ADB314611F8010D401CC2B23A2A08709BDA6F468F4204D01A980DF10F
:2038B0000107307003E01A98641C06F8010C14F1030F09DBA868A04215DA022C04DB1A9895
:2038D000641E24181A9406E0002C05DC1A98C4F10104001B1A900124287B199A801EC1B2BC
:2038F0001A98FFF7F4FE384607F082FE0026401E844219DC021B521C002803D4395C302972
:2039100001D004E0302116B92B681B0908D3DDF864C0DCF800305E1ECCF8006001261970E3
:20393000521EA0F10100E7D12868002200F00800304318BF0122199B21463846FFF7F0FE29
:203950001BB0BDE8F08FC0463031323334353637383941424344454600C046C03031323334
:2039700034353637383961626364656600C02DE9FE4F0D99441C9946924601900FF2341BDA
:2039900000940C9F029130210170194610469BE80C0004F0F9FD38BF89F00049002512E085
:2039B0003020087054E098E80C0003F022FA6D1E8946824610E098E80C00504602F0B4FD89
:2039D0006D1C8946824655A20CCA494604F01FFE0FF24018EFD37F1C9BE80C00504604F07B
:2039F000D3FD0AD04FA20CCA504604F0CDFD4FF0000638BF0126002ED5D1504605F0A0FF91
:203A10000646214605F074FC041941190298EF19002F016017DD304606F0CEFF0B4602460F
:203A30004946504602F032FB98E80C0003F0E1F98946824605F084FF064606F130007F1EBA
:203A500004F8010BE7D114F8010D352810DB214611F8010D401CC2B23A2A0870A0DA0198F7
:203A7000884205D10299019A08680092401C0860002100982170BDE8FE8FF8B516460D46C2
:203A9000044607F0B5FD324629465118491E521E0FD4521C002903D48842C8BF665C00DCBC
:203AB00030261D686F1E521E1F60A1F101012E70F0D1F8BD0000000000000000F0B51546F7
:203AD000AF681C460246ADF5FE7D002FADF1100D44BF0627AF60266802A800970B4601901E
:203AF00003A8FFF744FFAA68029923460746FFF7C4FF20680122B04203D12868000938BFB5
:203B10000022029938462346FFF70AFE7FB004B0F0BDC04600000000000024400000C0FF3A
:203B3000FFFFDF41000000000000F03F2DE9F0471646B4689A4688460746ADF1700D002C21
:203B500044BF0624B4600FF2E42999E80C0004F05EFD4FF000050DD90FF2D82999E80C0071
:203B7000384604F011FD05D9B4A20CCA04F00CFD12D11FE099E880010EE099E80C003846D1
:203B900002F0D2FC6D1C07460FE099E80C0003F030F96D1E88460746AAA20CCA414638461A
:203BB00004F0F2FC0FF2A429EFD399E80C0004F02EFDE2D9009402A80B463A46019003A8D1
:203BD000FFF7D5FE04460298022809D1401E0290204607F00DFD6D1C0021201800F8011CD6
:203BF000317B28465246FFF772FDB268029920465346FFF742FF204607F0FAFC02990122A2
:203C1000884203D13068000938BF002220465346FFF786FD1CB0BDE8F0872DE9F04F07463A
:203C300016460020ADF17C0D1B9380A4009094E80C00384604F0EBFC88460FF200290CD9B1
:203C50007CA494E80C00384604F09EFC05D999E80C0004F099FC02D109E094E8800141466C
:203C700038466A4605F00EFA0098401E0090307BB5680024A0F14101B5F1FF3F1D9108BF6B
:203C90000124A24641280CBF744875481E9030208DF8080099E80C004146384604F074FCD9
:203CB00038BF88F0004899E80C00414604F06CFC0CD0384601AA05F0E5F9019A4146384655
:203CD000C2F1010203F04AFE88460746384605F037FE83460DF1090105F00AFB044658466D
:203CF00006F06AFE0B4602464146384602F0CEF90FF2601B04EB0D021C940746BAF1000FCE
:203D100002F1090451D16D1C15D09BE80C0003F070F88846814605F013FE1E99095C04F866
:203D3000011B06F049FE0B4602464146484602F0ADF96D1EE9D11D9F641E002F14BF484BBC
:203D5000464B2178184607F0F6FBC01A082831DB254600271D986D1E002814BF404B3F4BEB
:203D70002978184607F0E7FBC01A401C1028B4BF195C3021102829701CDB2F70EAE79BE8F9
:203D90000C00384603F035F80D46074605F0D8FD1E99095C04F8011B06F00EFE0B46024630
:203DB0002946384602F072F9074699E80C0004F0EBFBE4D10025307B2570412814BF70210E
:203DD00050211B9A0098FFF782FCB068B0F1FF3F05D10DF1090007F00BFC401EB0601C99AC
:203DF0001B9B0DF1090402462046FFF746FE3168B0682A4601F00801084318BF01221C99F5
:203E10001B9B2046FFF78CFC307B412814BF782158211B980268531E0360117001683027CD
:203E30004A1E02601FB00F70BDE8F08F000000000000F07F000000000000F0FF00000000D8
:203E500000000000000000000000F03F0000000000002440000000000000304058390000BE
:203E70006C3900002DE9F04F05462B6816460C46ADF5FE7D1846ADF1600D07F0B9FB4FF03C
:203E9000000A01468B96184693945B1883428C9340F24A84CDF844A2CDF824A251469291D4
:203EB0008A919691B84A959294924FF0FF360396899901910F468DF8107002970778252FDA
:203ED00008BF0A1C10D0002F00F02E842968491C296000788B9905F05EFA286807780AF1C2
:203EF000010A252FEFD1019A2868939C401C286011E042F010020AE042F0010207E042F0E8
:203F1000020204E042F0080201E042F0040201922868401C286028680178B1F12000F4D0BE
:203F3000C01EEFD00838EAD0801EE5D0C01EE0D02A291DD0969986A80A2204F0F1FB2868C0
:203F5000017830290BDB86AA3A2908DA0146401C2860097802F8011B01783029F4DA9DF82D
:203F700018722E68B7B186A805F0C6FB029011E0E41C24F00304241D54F8040C002803D58A
:203F900042F0010201924042029020462E689390761C2E6030782E2831D12868401C286082
:203FB00000782A281FD0969986A80A2204F0B8FB2868017830290BDB86AA3A2908DA014604
:203FD000401C2860097802F8011B01783029F4DA9DF818722E68002F08BF8A980DD086A8DE
:203FF00005F08AFB09E02E68E41C24F00304241D761C939454F8040C2E6003903078019FDE
:204010004C381FD01C3811D0001F21D12E68761C2E6030786C2803D047F04007019717E005
:204030002E6847F48077761C2E60F7E72E68761C2E603078682818BF47F02007EED147F48D
:20405000007701E047F0800701972E68761C2E602868401C286030786E288DF8100000F0B5
:204070002E83732800F0E2820DF21520029E059020214FF4FF7206A804F052FB6E44183643
:2040900005988D968A9901700B468E930DF5057C8F938B4690939DF81070CDF814C0384685
:2040B000642814DC642821D0253800F0B4821C3800F00D81001F022840F20981133815D06D
:2040D000093800F00481801E00F0EC8172E16538022840F2FC80001F08D0801F012805D9BA
:2040F000801F18BFB0F1030040F064810399002904D4019820F01000019002E00120039004
:204110000146B7F1580007D0173807D0401E03D0083818BF0A2202D1102200E00822702F29
:2041300077D00198D946D84600F4EC60203852D0203842D0C03829D0B0F580700DD0B7F123
:20415000580066D00C385BD0401F59D0801F60D0801F5ED0C01E5CD065E0B7F158000AD005
:204170000C384DD0401F4BD0801F04D0801F18BFB0F1030057D1E41C24F00304241D14F837
:20419000048C4FF000094DE0FFFF0F00B7F158000AD00C3808D0401F06D0801F04D0801FC0
:2041B00018BFB0F103003ED1E41D24F007040834A4F1080090E8000334E0B7F1580028D0E5
:2041D0000C381DD0401F1BD0801F22D0801F20D0C01E28D11DE0B7F158000AD00C380FD063
:2041F000401F0DD0801F04D0801F18BFB0F1030019D1E41C24F00304241D34F8043C0EE046
:20421000E41C24F00304241D54F8043C4FEAE37907E0E41C24F00304241D54F8043C4FF003
:20423000000998469394CC1743464846194350EA040608BF002903D101990C09C0F04881DA
:20425000642F18BF692F08D1002806DA01265B424FF000018F9661EB000005A90091014670
:2042700018463B46FFF7EEF90399401C814227DA9DF81070782F03D0582F18BF702F11D148
:20429000019908090FD3702F08BF7827059807700598401E05903021017005989DF8107064
:2042B000401E059001996F2F40F012810809C0F00F8105984278302A00F00A813021ECE066
:2042D000059930220A700599491E0591CCE73846A0F16101192998BF20385E46B84208BF4F
:2042F0000126E41D24F0070408349394083C94E8030047F6F07347F6F07E03EA11439E45D2
:2043100010D1949C0A4600231200134300221C4040EA02024FF0FF3303EA020208BF002AA2
:2043300040F0A1805FEA0B0440F09D8073460FF2C42C03EA11439E450FD1959C0A46002325
:204350001200134300221C4040EA02024FF0FF3303EA020208BF002A33D05FEA0B0430D18A
:204370009CE80C0004F010F93CBF81F000414FF0010BB7F141021FD0121F15D0521E0ED06A
:20439000521E07D01A3A17D0121F0DD0521E06D0521E0FD101AA05ABFFF7F7F908E001AA13
:2043B00005ABFFF78BFB03E001AA05ABFFF7BEFB9DF8107001998BE001AA05ABFFF72DFC40
:2043D00029E09CE80C0004F0DFF826D3002E14BF4621662105988DF81412002EA0F1010079
:2043F000059014BF4E216E2101700599002EA0F10100A1F10101059114BF49216921017016
:204410000599491E05912B2700F8017C05984FF0030B401E0590019958E0002E14BF462113
:20443000662105988DF81412002EA0F10100059014BF4E216E2101700599002EA0F10100A8
:20445000A1F10101059114BF4921692101700599491E05912D2700F8017C0199DDF814C043
:204470004FF0040B2FE0002E14BF4E216E2160468DF81412401E002E059014BF41216121A7
:2044900001700599002EA0F10100A1F10101059114BF4E216E214FF0020B01700598401E8A
:2044B000059085E7E41C24F003045E46241D14F8047C939407B901268DF814720199909686
:2044D00021F0020101916046401E05909DF81070059A752F02F101002BD06F2F29D0782F08
:2044F00027D0582F25D0702F23D05FEA0B0703D07F1E1ED101238F9301F002038F9F8E9362
:204510001FB98B0808D32B2100E02D211170059A0199401E521E05928E9E374309D1CA085A
:2045300007D3059920220A70059A0199401E521E059249080ED20599029AADEB010303F29D
:2045500015239A4206DB8D9C06AA891A6418A4F5FE7400E006ACA446401E4FF4FF7110F8BE
:20457000017F0CF8017B1FB1491EF8D1DDF858C2909ACDF814C022B18A9960460170401C10
:20459000059005988D9981420AD38846A8EB00022021401E521C04F0C3F88A9888F8000052
:2045B000019840092AD306A8A0422ED006A8221A302106A804F0B4F89DF81000782810D0D0
:2045D00058280ED070280CD08E9F8F9E374302D10198C00819D320788DF8180030272770E2
:2045F00013E00198000910D360788DF81900302767700AE0000000000000000006A8241AB9
:204610002021224606A804F08BF806A806F0F0FF909A121804E047A00188012206AF3980F0
:204630008B9906A804F0BCFE824478E0039BE41C24F00304241D54F8048C9394B8F1000F17
:2046500038D0029E002B06D4404606F0D1FF984288BF181C02D8404606F0CAFF0446B4429D
:20467000A8BF061CB244A6420ADD780808D2371B002F05DD8B99202004F08DFE7F1EF9D1D5
:20469000002C07DD274618F8010B8B9904F083FE7F1EF8D10198A64241DD40083FD3361B28
:2046B000002E3CDD37468B99202004F074FE7F1EF9D134E096988B9904F06DFE2FE007F426
:2046D000EC67B7F1200021D0E03814D0B0F5807008D0E41C24F00304241D54F8040CC0F8E5
:2046F00000A01BE0E41C24F00304241D54F8040C80F800A012E0E41C24F00304241D54F8A5
:20471000040C4FEAEA7B80E8000C07E0E41C24F00304241D54F8040CA0F800A093942868D9
:204730008C9981423FF6C1AB7FB0504618B0BDE8F08FC046250070472DE9FE4FE5498046F6
:204750000122A1F130000260DF480768002FFCD0DE4ADF4EC027E048E04B17603268920837
:2047700008D2324652F8042C03F14104120C42F0F00222704FF0000A8346C1F800A0DFF80E
:2047900064C3DBF80810D64D0191880E43D2480E41D3802018744FF6D802A3F8512018704E
:2047B0002868C0F30464162CA8BF203C1F460F3F387800F01F001628A8BF2038844223D011
:2047D000624602F1980EDA4ACEF800A0261A022E05DC16F1020FB8BF6FF0010600E00226B0
:2047F0003018166800F01F06844246F4F856A7F866604FF001061660E8D11068374617603A
:204810001068CEF80060106828460068C0F30420162808DB06E0A5F1D0000068C0F30460D9
:20483000162800DB203800EB2170401C162805DA10F10A0FB8BF6FF0090000E01520DE4FC7
:2048500000F01F0040F4F850A3F85900386880083ABFEA48C0F800A041F04061019E624605
:20487000A5F13804C80E8F0E80F0010000F00100106087F0010000F0010090602068C0F37D
:204890008367C0F38F21B00C23D2304640F3072000280BD542425046490805D17F0806BFA5
:2048B0000127391C4FF6FF71521EF5D1002810DD4FF6FF72490041F001018A4207D27F0015
:2048D00047F001070F2F92BF01210F27111C401EF0D141EA0741182005F0B6FD2068D24E5B
:2048F0002768C94CA6F10409C0F3870107F0030041EA0021D9F8040040F2FF3253468FB2CD
:204910002C21466800972746A7F14000B0470C3D2868C0F30D011C2005F096FDB84955F80D
:20493000080C014000F07C400143142005F08CFD55F80C1C01F47C000904090C01431020F4
:2049500005F082FD624955F8042C0968C2F30350C2F30345490813D2DBF800100B0510EB11
:20497000237003D41028A8BF0F2000E05046090415EB217503D4102DA8BF0F2500E05546AC
:2049900045EA001502F47F4002F0FF01B8F1220F40EA054041EA000124BF02F080421143BC
:2049B0000C2005F051FD974DB8F1220F32BF01202868C0F30070B8F1220F4FEA400040F072
:2049D000200084F8090126BF2868C0F3407001208E4EB8F1200F40F0100084F8090138BFB7
:2049F000514606D33168C80C00F44070C1F384510143282005F028FDB8F1200F26BF3068A2
:204A1000C0F301505046B8F1220F4FEA400040F0600084F80C0126BF2868C0F3C0605046A2
:204A3000B8F1220F4FEAC00040F0800084F8010126BF2868C0F345505046B8F1200F4FEA01
:204A5000800040F47C40A4F89C0138BF70490AD3306801038A15920501F47C1100F00F00BD
:204A7000114341EA0031082005F0EEFC4FF48000A5F1D0012060674A886D40F21E236FF34A
:204A90001F40834216D90868030E13F00F0F03F00F01C0F3034018BF491E072805D00628E8
:204AB0000EBF0720801C00F00F0041EA0011A2F108000170DDF804C0CCF381477F1E13D06F
:204AD0007F1E3BD036E0C0469402224300600C40B03F005040100940AC3F00501562084089
:204AF000881300500000204328460068810C21D24FF480412160D2F80210430AC0F3033767
:204B100003F0800321F08F010B4347EA0301C2F80210D2F80130060A66F30303C2F80130CA
:204B3000116800F0E70721F0E70147EA010004E02C2009404FF00040224610603B48006828
:204B5000C0F3C0070FB94020A0624FF40070206428684027C0F3C14040F0300084F8C8001B
:204B7000CCF3815050B3401E03D0401E1FD002211EE0012005F0BCFF06460420314604F047
:204B9000C7F9042005F0B4FF8642FAD12248066826F07F4005F06AFED9F814000368072164
:204BB0004FF06022300E98474FF4806020600321042004F0ADF908E000000940042001210B
:204BD00004F0A6F9154805F051FE203D2868144947F6180600F03F0084F8CB0F144B0E807A
:204BF000D9F800201868D1680220884711480D4D076001212960BDE8FE8FC04694042A4308
:204C1000FCFCFC008C13005040A00C409813005000803F400A600840A83F0050BD37860018
:204C300070B00C4094046042A4010010B03F00502C20094000600C402DE9F04F08260127DE
:204C5000ADF15C0DADF8106004A8ADF8127005F079FBCF4C9DF814002070069804F12C05D4
:204C70000021A060284607F075F8CA4941F28832042304F16C00E56004F01AFE00251F20F4
:204C90000621656005F010FB5020ADF83E008DF84E70A846ADF83C8039468DF84F700DF172
:204CB0004E02ADF842804FF44870ADF840004FF47A70ADF8440040F2053000F001FA40F2B3
:204CD000063002210FAA00F0FBF94FF442701E2104F14D0200F0F4F940F20730072104F1F3
:204CF0001C0200F0EDF94FF4447039460DF14F0200F0E6F940F2113002210DF13E0200F058
:204D1000DFF940F21230022110AA00F0D9F940F2133002210DF1420200F0D2F94FF445700B
:204D3000022111AA00F0CCF9C649032005F066F90620A02105F0B8FA0720A02105F0B4FA31
:204D50003046A02105F0B0FA0920A02105F0ACFACDF83880B9468DF852804FF481608DF86C
:204D7000509004218DF851900EAA8DF8539005F081FA4FF48060394614AA05F07BFA40F22C
:204D9000024039460DF1510205F074FA40F2034039460DF1520205F06DFA40F206403946F5
:204DB0000DF1530205F066FA032005F003FC042005F000FCB948BA4A132105F011F84FF099
:204DD000040AB84DADF81C602878ADF81EA08000089007A805F0B6FA00280CBF099F4746F8
:204DF000B1488346876087B12B7843B14FF6FF713F1F404627F8041F5B1EB870FAD1AB4AEF
:204E10000BF11400112104F0EBFF02278DF857A048468DF8557003238DF85400A4498DF874
:204E300056300DF1460740460A6809793A6015AA3971494602F05AFE484649460DF15502C9
:204E500002F054FE022049460DF1560202F04EFE032049460DF1570202F048FE50460521BC
:204E70000DF1460202F042FE04F11800AF78CBF8040037BB04F1140095F801B095F8039056
:204E90006862182006F06FF8071C1AD05146424606F0B8FB584605F0FBFF387287F809907F
:204EB00087F80A8005F14800F86005F158033B6105F120027A6106F066F87E4A394605F0D3
:204ED000BBF80C2006F04FF8071C0BD00121524606F0EAFC04F12400B86006F054F8394620
:204EF00005F0DAFD0120102105F054F90220102105F050F9704942F22F0005F07DFE0A20FB
:204F1000ADF80200ADF800604FF0FF370197684605F018FA002840F0A88000200D90ADF831
:204F300028600927ADF82A700AA805F00BFADDF830800028CDF8348040F09280BDF82C0075
:204F50004FF00109102855D120789DF82E10884250D1454628884FF6FF7181421CD0287805
:204F7000B02847D1687816280CD16888314605F03BFD38B9484605F029FE0D984FF000091A
:204F9000206137E0297905F1080006F099F931E0E8130020D9B50000688800092AD3256903
:204FB00045B36078B5F802B0401C607095F804A0102005F0D8FF0835071C1BD002211522B4
:204FD00006F072FCA7F808B087F80AA0FD6005F0DAFF3A4A394605F02FF80546162D09D02C
:204FF000042D07D020694088002105F0FDFC284605F0ECFD0D98002832D0B9F1000F2FD066
:20501000404606F099F92BE0E068054606F09EFE854208BF002702D0876806F075F9381C14
:205030001ED03888401E0FD0401E10D1B87818B1801E0CD1022000E0002016A904F00AFDE6
:2050500005E0C046E9BA0000B87801F0C9FFADF808600520ADF80A00039702A805F072F944
:20507000E06806F06FFE0028CED06088C108FFF446AF20F00400608006F0A8FC02200DF168
:20509000590104F0E7FC00287FF439AF032001210DF1590202F02AFD31E7C046F017002050
:2050B000D8CF00000410002020190020E4CF000036D00000F5BA0000BBBA000081B8000096
:2050D000F8B5A0F2013517460E46022D40F214818A4A8B498B4B2D1F0F2D04D9143D4AD056
:2050F000AD1E1CD011E0DFE815F0C300BC00F400E400B300AB000701A2009A001000100013
:205110009200880079006F006300282880F2F480022E40F0F180398805F0C6F8F8BD012EBB
:2051300040F0EA8015462879012800F0E58051793878507181B9002800F0DE80907801282F
:2051500000F0A980042800F0A680062800F0A380052800F0A080F8BD3878002840F0CC805D
:205170009078032800F0A280072800F09F80052800F09C80F8BD012E40F0BE803878012838
:2051900040F0BA80154605F1F00006F003FB002840F0B2802C46002004F13E01FBF7E8FE38
:2051B000002840F0A98004F1CC0006F011FDF8BD022E40F0A18038880A28C0F29D80B0F5FD
:2051D000486F00F3998015E0022E40F095803888B0F5FA7F80F290800880F8BD022E40F095
:2051F0008B8038880628C0F28780B0F5486F00F383801946891C0D4638E0022E7CD13888EF
:20521000062879DBB0F5486F76DC1946F3E7012E72D1387806286FDA891F0D460EE0012E64
:205230006AD13878042867DA15460B3506E0012E62D1387808285FDA15460A352870F8BD23
:20525000012E59D13878042856DA1546093506E0012E51D1387804284EDC154608352946FC
:20527000DBE7022E48D13888154612352946B3E7012E41D11546687901283DD011793878BB
:20529000107161B9002837D09078012803D0042818BF052830D1012006F0BAF8F8BD3878D1
:2052B00050BB9078022818BF052825D106F02AFAF8BD154605F1870400211F22204603F041
:2052D0002FFA39463246204602F0D0FE0020EE710EE0154605F1680400211F22204603F093
:2052F0001FFA39463246204602F0C0FE0120AE713146224604F0A0F8F8BDC04604100020DE
:2053100048100020441000202DE9F047DFF80CA20746AAF13500DFF8F8810068800880F0F2
:20533000E78005F02BFD814908310B6800261C17641C990D0AD2C0F13E0110F10A0F4FEAC5
:20535000E101D8BF08218C42B8BF0C1CDFF8C4C1990E0FD2590E0DD36246143A1168C1F3E0
:2053700004211629A8BF20391268C2F30462162A0EDB0CE0634AD2F87C11C1F304611629F3
:20539000A8BF20391268C2F30442162A00DB203A61189146162905DA11F10A0FB8BF6FF0F4
:2053B000090100E01521584C584D01F01F0242F4F85222802A6812F0030F18BF0126D208C2
:2053D00028BF46F002060FB146F00406424692F90740041B052C04DA9479B44208BF91882D
:2053F00066D00F28A0F10F0827DB08EB0014A4F1F0084FEA282EBEF1070F88BF4FF0070E03
:205410007546062D88BF06255CF82570042404EB850465462C59E41B04F0FF05F70824BF8A
:20543000C4F307273D44B70824BFC4F307473D44770828BF05EB146501E00025AE465CF8B1
:205450002EC0F7080CF0FF0424BFCCF307273C44B70824BFCCF307473C44770828BF04EB7C
:205470001C64ADB2A9EB0101A8EB0E277D43002905F1800504EB1524D8BF012103F0FF03A5
:2054900034254D43A9B259434FF6FF73B1FBF4F18B4238BF191C802889B2918005DA10F107
:2054B000800FB8BF6FF07F0000E07F20D0719671194800681F2910604FF0000008D340F264
:2054D000FF128A4206D24908401C8A42FBD301E01F219180124F0F39090940EAC10047EAB7
:2054F0000001CAF8FB1F0026CAF8FF6FBDE8F0870C490D4F424608200F60921D1070BDE8A9
:20551000F087C0463C1100506E62084024220840482F00209C130050082009403500094036
:2055300000E7A48030100940FDFDA400AC3F005001282DE9FE4F40F0EE80DFF810B2DBF858
:20555000DC00012840F0E4800220CBF8DC0005F04BFD012004F0E4FA5FEA000805D001206A
:20557000CBF8DC0005F050FDD7E006F027FB6C49029000200860012005F0BAFA012818BFD2
:20559000002003D1002003F02FFC0120654900900020654F08603868112006F001FA002844
:2055B0000CBF00240124102006F0FAF908B144F002040F2006F0F4F908B144F004040B2089
:2055D00006F0EEF930B1624814300068574E016B308888470A2006F0E3F9002600B1012615
:2055F0004FF0805A0AF5DC75301C04D02868504E016B308888474F48012606602868816953
:2056100044F0200088474C48066006F0C3F900F001010191400814D2484806F00DF98146A6
:20563000B9F1040FF8D0B9F1010F05D1DAF8D80142684248032190474149086820F003005E
:2056500008600020FFF760FE2B683868986B8047019801280DD0B9F1010F05D1DAF8D80187
:2056700042683648314690473549086840F0030008602C48066028684169204688470B20A7
:2056900006F08EF920B12868284BC16A188888470A2006F085F920B12868254BC16A1888D5
:2056B00088472448032206602349CBF8DC2000230B602868416B204688470128F9D1386857
:2056D000042004F02DFA044615481E490660386808688009FCD30098012802D1304603F0A2
:2056F00083FB06F045F9082004F01AFA07460298CBF8DC6006F032FB1348008803F040FA9F
:2057100005F082FC57EA040018BF4FF0FF3804E06FF0040801E06FF001084046BDE8FE8F24
:205730000C400940000222432C2009404ECD00004ACD00002820086080010443004003409B
:20575000242208401410094044CF0000581B0020A40100102DE9F0411C4615468C4208BF4A
:20577000854282BF00230022E5E0002C08BF002D0AD100290EBF00286FF000006FF000012F
:2057900000F0E1F8BDE8F0815FF000085FF0000E002C08BF8D429CBF2C1C0025070C47EA98
:2057B00001470E0CB44208BFBD429EBF5FEA044444EA15445FEA0545070A47EA01670E0AF1
:2057D000B44208BFBD429EBF5FEA042444EA15645FEA0525470847EAC1774E08B44208BF4A
:2057F000BD4200F29380870847EA81778E08B44208BFBD427CD8C70847EA4177CE08B442B3
:2058100008BFBD4266D8070947EA01770E09B44208BFBD4250D8470947EAC1674E09B442CA
:2058300008BFBD423AD8870947EA81678E09B44208BFBD4224D8C70947EA4167CE09B44212
:2058500008BFBD420DD8E60146EA5566EF01B14208BFB84201D3C01BB14158EB08085EEBDA
:205870000E0EA60146EA95664FEA8517B14208BFB84201D3C01BB14158EB08084EEB0E0E58
:20589000660146EAD5666F01B14208BFB84201D3C01BB14158EB08084EEB0E0E260146EA62
:2058B00015762F01B14208BFB84201D3C01BB14158EB08085EEB0E0EE60046EA5576EF0040
:2058D000B14208BFB84201D3C01BB14158EB08084EEB0E0EA60046EA9576AF00B14208BF71
:2058F000B84201D3C01BB14158EB08084EEB0E0E660046EAD5766F00B14208BFB84201D37D
:20591000C01BB14158EB08085EEB0E0EA14208BFA84201D3401BA14158EB08085EEB0E0E95
:20593000A34208BFAA423EBF2D0A45EA0465240A89D3734642461E4617460B460246314657
:205950003846BDE8F0817047014677482DE9F04F3C38ADF12C0DB0F90C204769B0F90E808A
:20597000468A0292002F028A0478039270D1B0F90820029B9A4240F3D280B0F90A2042457D
:2059900040F3CD80620002EB84029A18002A40F3C68008EBC402002A40F3C180C078012895
:2059B00003D0B029A4BF481CC1B25E4D0846002700EB80016818A0F1010919F801AF002564
:2059D0005FEA5A0008D20398B0421ED0012C18BF009605D1324610E0012C0DD003980090B2
:2059F0000298224604FB0581134604FB070009B200B205F06FF908E0039A029805EB0801CF
:205A1000381809B200B205F055FE6D1C4FEA6A0A082DD5DB7F1C052FCFDB0398B0427ED002
:205A3000012C0CD000960299204600EB80002246E300081800B2414605F04CF96FE0029884
:205A5000414633460822401D00B205F02BFE66E0426947694669127A7068891ACAB239686B
:205A7000D60036F800A00491311891F905208F78C878069291F906100597022C0791BABF8B
:205A90000021089108920991002848D000260190B3463746059D002D3CD0A94600250BF1B0
:205AB00001005FFA80FB0BF1070010F0070F06D1049810F80A600AF101031FFA83FA36F048
:205AD0007F0320D0012C11D00398089B00900299E81804FB001009992246134600B2791818
:205AF00004FB018109B205F0F5F80CE006980299079B039A4018281803EB080100B2791842
:205B100009B205F0D7FD7000B9F1010905F10105C6B2C4D101987F1C401E0190BAD10BB05B
:205B3000BDE8F08F00C60000682E0020F8B504466F481F4615460B46DFF8B8C1B0F90420D9
:205B5000B0F906104078401E57D0401E05D0401E0CD10C1B641B24B252E0101BCB1A401EAF
:205B70005B1E00B21BB2401B401C04B2002B00F1BE80994240F3BB80002C02D5641925B2B6
:205B9000002428198242BCBF121B15B2002D40F3AE80C3F3D8006146012603F00703C000B6
:205BB00004EB0014091906FA03F0D7B17F1E0DD07F1E40F09C802F467A1E002F15B200F0DF
:205BD00096800A78424001F8012BF4E72F467A1E002F15B200F08B800A78024301F8012BB1
:205BF000F4E780F0FF002F467A1E002F15B27ED00A78024001F8012BF5E7D01A401E03B238
:205C1000181C74D4824272DD002C02D5641925B200242A199142BCBF091B0DB2002D66DD86
:205C3000E1B2634614F0070FC1F3D801EEB24FEAC10100EB0110184422D02F4904F0070415
:205C5000091B097AC4F10803B34203DD9C1BFF22224111403A1C09D0521E04D0521E0AD1AE
:205C70000278514006E00278114303E0027881F0FF0111400170B34239DCF61A8030F6B253
:205C9000082E1FDB022F0FD0012F0CBFFF210021082EB4BF0125F510A6EBC506F6B26D1E15
:205CB00000F8801BFBD10DE0082EB4BF0125F510A6EBC506F6B201786D1E81F0FF0100F843
:205CD000801BF8D19EB10D4906F00706895D4FB17F1E04D07F1E0AD10278514006E002786E
:205CF000114303E0027881F0FF0111400170F8BD2C2E0020030C0020D4200020CC20002032
:205D1000F8B504466E481F4615460B46DFF8B4C1B0F90420B0F906104078401E00F08C80CB
:205D3000401E06D0401E0AD10C1B1846641E24B285E0101BCE1A401E04B2701B03B2002C11
:205D500000F1BC80A24240F3B980002B02D55B191DB20023E8188142BCBFC91A0DB2002D41
:205D700040F3AC80D8B2624613F0070FC0F3D800EEB24FEAC00004EB001402EB040022D05F
:205D9000514903F00703C91A097AC3F10804B44203DDA31BFF221A4111403A1C09D0521E36
:205DB00004D0521E0AD10278514006E00278114303E0027881F0FF0111400170B4427DDC16
:205DD000361B8030F6B2082E1FDB022F0FD0012F0CBFFF210021082EB4BF0125F510A6EB29
:205DF000C506F6B26D1E00F8801BFBD10DE0082EB4BF0125F510A6EBC506F6B201786D1E6D
:205E100081F0FF0100F8801BF8D1002E56D02F4906F00706895D57B17F1E05D07F1E4DD1BB
:205E3000027851400170F8BD02781143FAE7027881F0FF011140F5E7D01A401B00B2002C37
:205E50003CD4A1423ADD002802D5401905B2002029188A42BCBF121A15B2002D2EDDC4F38F
:205E7000D8016646012304F00704C90000EB0110301803FA04F1AFB17F1E0AD07F1E1DD109
:205E90002F467A1E15B2CFB102784A4000F8012BF6E72F467A1E15B287B102780A4300F8CE
:205EB000012BF6E781F0FF0103E002780A4000F8012B2A46531E002A1DB2F6D1F8BDC04631
:205ED0002C2E0020030C0020D4200020CC2000202DE9F04FADF1240D079000F06BFD61482D
:205EF000007804F0EFFD604D0024012808D90A380FD0801E04D0401E0ED0401E09D006E073
:205F100005F03EFA022804BF01210C1C06D0696805E005211F2401E0032107246960534A82
:205F30001068C0F38150012806D152F80C0C0127020E07FA02F0044305F01CFC524AFF23B6
:205F50000818401E471C28607F1E02F8013BFBD1079A1268002702F0FF03FE2B20D0DDF805
:205F70001CC096463B4601260EF0FF02FF2A10D0904205D3914203D806FA02F2144201D036
:205F900002206CE017430EF0FF02DFF8FCE00EF802305CF804EF5B1C0EF0FF02FE2AE5D1A4
:205FB000092001F0BFFE07980121A86005F1280004F0E0FD05F19806A8464FF0010A4FF037
:205FD000040B0025A9460AFA05F0044216D1074204BF05F0FF0141F4C04104D02A4807994B
:205FF000405D51F82010224801F0C8F9E8B24FF0FF3105F0E5F8C6F8009001E0C6F800B0E7
:20601000D8F800006D1C361D8542DCD904A805F081FB184C184A2078102104AB059008F15F
:206030000C0003F081FE684605F0ACFBCDF80C906A4660681149029008F1640003F0A2FFD2
:206050000F4951F80D0C20F4F85040F4005041F80D0C0C4FC1F8FFAF4846C7F800A009B0DC
:20607000BDE8F08F5C2F0020441A0020B43F0050007FC76708D00000EDB10000B99C000008
:206090000D30094008000940881A00202DE9FC4F83F0004301E02DE9FC4F1F03FF0847EAA4
:2060B000D2574FEA42284FEA43095FEA595906D147EA080A1CBF00210020BDE8FC8F57F0D7
:2060D00000575FF4E06E1EF1FF0EF14505D14FF00000190D0905BDE8FC8F002B05D55FF099
:2060F000000AD8F100086AEB07070C03E40844EAD0544FEA40254FEA4106760D08D144EA5D
:20611000050A19BF00210020191C101CBDE8FC8F44F00054764504D10020090D0905BDE8B5
:20613000FC8F002904D55FF0000A6D426AEB0404B6EB090E08D5A2463C465746AA46454646
:20615000D046CEF1000E4E46BEF1360F5CBF4FF0000B23E0BEF1000F04BF4FF0000B1AE097
:20617000CEF1390ABAF120092EBF08FA09FB07FA0AFB4BEA080BDEF1200A07FA0AFA38BF03
:20619000BA4647FA0EF72DBF28FA0EF8AEF1200E4AFA0EF8D04415EB08057C4154EA050A53
:2061B00002BF00210020BDE8FC8F002C58BF4FF0000A06D55FF0010A5FF0000E6D426EEB77
:2061D0000404A6F101066D006441FAD515F4806E11D005F480794BEA090B15F5806554F1E1
:2061F000000428BF761C0BD205F400795BEA090B08BF25F4006525F4E0656D0044EB040423
:20621000B61CDEBF00210020BDE8FC8F5FF4E06E1EF1FF0E76450AD34FF0000013F00043B4
:20623000FF21C900C91D09051943BDE8FC8F270547EA1530210B41EA065141EACA71BDE88A
:20625000FC8F70472DE9F843614C5A4D5A4EDFF870815E4F94F8E4100846401E0B2864D88F
:20627000DFE800F07B2C43062343062343067664042907D001220A2945F8212C14BF0220DC
:20629000032004E0202045F8210C0120024684F8E200002045F8390C0827C5F8FF7FC5F8AD
:2062B000F37F45F8392CBDE8F883052914BF09200620002784F8E400376075E094F8E170FA
:2062D000383D0120002FC5F81B0004BF0620002102D00021F160032084F8E400032045F8E0
:2062F000010C3160306880085ED294F8E4103348012703290ED00068456800216022052393
:2063100000914046A84794F8E400062814BF0A200720CFE7006845680021602205230220ED
:2063300000904046A8470420C4E7FEE72548264F0026012506600E203D6001F095FC022091
:2063500004F0D0F884F8E45084F8E360BDE8F883002038600C25786024E04FF08059D9F834
:20637000A0010168202088472C3D0F2045F8010C41F61D56C5F80360D9F8A4014668002103
:206390004FF4C0720723022540460095B047D9F8A401C66800214FF4C07207234046B04734
:2063B0000120386084F8E45004F1780005F0CEFBBDE8F88339400C4038600C40A4010010BB
:2063D00000A00C402C500C4004800C4034600C40581B00202DE9F04704466568A6680F46EF
:2063F000ADF1200D05F0BCFB95F8DC10012903D105F0B8FC002085E04FF0010A85F8DCA02E
:2064100005F0B0FC3878287078686860387AE860706801F087FC204603F0D6F8F86867683F
:2064300028B9A06890F8149090F8158003E090F8009090F80180B9F1FF0F15D0B8F1FF0FC2
:2064500012D0324840EA09010491FE23069340EA080004A9059007F1980001F055FEC7F846
:20647000A400D7F8A40070B9294800240460294F3C60706801F0F8FB05F072FB85F8DC4008
:2064900005F070FC3DE049460D2204F05DFBD7F8A40041460E2204F057FB684605F03AF91E
:2064B000307B00946B46B1681B4A019005F1100003F03AFC684605F065F9306900946A46C0
:2064D0001649029005F12C0003F05CFD05F16000514604F04FFB287830B905F17C00002106
:2064F00004F048FB0E48686000202872C5F8BC000C4AC5F8C0000421234605F1C80004F0F1
:2065100065FC204608B0BDE8F087C046002000840428004010040542ED6B0000A9910000CD
:206530009BBA0000C5B700002DE9FC4191EA03084CBF4FF000484FF000084FEA03354FEA1E
:20655000153556006D414FEA43075FEA575711BF45F4001500210020BDE8FC814FF4E06E51
:206570001EF1FF0E77456FD04FEA01334FEA133342005B414FEA4104640D11BF43F4001321
:2065900000210020BDE8FC8174455DD0E41B002100205FF0360EAB4200D1B24205D34041C4
:2065B0004941921B63EB050301E040414941BEF1010E05D053EA020702D052005B41EAE7E8
:2065D000BEF1200F09D2BEF1160F0CD3CEF1200720FA07F100FA0EF00FE0AEF1200E00FA99
:2065F0000EF1002009E001FA0EF1CEF1200720FA07F741EA070100FA0EF011F4001F02D169
:2066100040004941641E401C51F1000111F4800F1ABF641C21F4800121F400114FF44077DC
:20663000FF37E419DEBF00210020BDE8FC8107F58067BC4208D249084FEA300041EA045122
:2066500041EA0801BDE8FC810020FF214FEAC101C91D4FEA015141EA0801BDE8FC8170471B
:206670002DE9F04F0C464549CA7AADF12C0D84460592487B09900D7900958A7A488B4B8A36
:206690000E7B91F805A091F802800492B1F846E008904A7A088B0392CD7807900A7AC88A8D
:2066B00002920F6A0690CA79888A01928A79E146A9F54079B9F11D0F10D8DFE809F05B5590
:2066D00053514F4D4B494643413F3C3A380F34312E2B2923201E1C0F19181716BCF1280F5B
:2066F00049DA604603F05EFB21E0099EB246D046CDF814801DE00898079007980690DDF828
:2067100018E005E03831086820608888A08032E070460AE0B1F8440009E0B1F8420004E0AC
:20673000B1F8400001E091F83E00034612E0208021E0059804900498039001E03231E2E76F
